AXFH000
HFDTE040524
HFPLTPILOT:Daniel Apostu
HFGTYGLIDERTYPE:Gravity  Xrocket
HFDTM100GPSDATUM:WGS84
HFRFWFIRMWAREVERSION:8.2.1
HFRHWHARDWAREVERSION:iPhone XS
HFFTYFRTYPE:Flyskyhy,8.2.1
HFGPS:SkyDropVario
HFPRSVARIO:SkyDropVario
HFCCLCOMPETITIONCLASS:Paraglider
HFTZNTIMEZONE:2
HFSITSITE:Gemona - Mt.Cuarnan,IT
I053638FXA3941VXA4244GSP4547CCO4850HDT
C040524124356040524000107TASK
C0000000N00000000ETAKEOFF
C4616430N01310536E00004009999999000000360000STARTAREA CUARNAN T OFF         
C4616430N01310536E00000000002000000000360000TURNAREA CUARNAN T OFF          
C4613520N01313655E00000000003500000000360000TURNAREA PALUZ LANDING          
C4615074N01306923E00000000002000000000360000TURNAREA LESSI CHURCH           
C4616430N01310536E00000000000400000000360000TURNAREA CUARNAN T OFF          
C4613520N01313655E00000000003000000000360000TURNAREA PALUZ LANDING          
C4616325N01259835E00000000007000000000360000TURNAREA CUAR MOUNT             
C4618378N01306782E00000000002000000000360000TURNAREA BORDANO LANDING        
C4618378N01306782E00000000000300000000360000FINISHAREA BORDANO LANDING      
C0000000N00000000ELANDING
B1244274616470N01310537EA0118001180001100000153110
B1244284616470N01310537EA0118001180001100000153145
B1244294616470N01310537EA0118001180001100000153125
B1244304616470N01310537EA0118001180001100000153087
B1244314616470N01310537EA0118001180001100000153086
B1244324616470N01310537EA0118001180001100002176090
B1244334616470N01310537EA0118001180001100002117076
B1244344616470N01310538EA0118101181001100005069084
B1244354616471N01310539EA0118101181001100006069136
B1244364616471N01310540EA0118101182001100006128243
B1244374616471N01310540EA0118001182001100005195276
B1244384616470N01310540EA0118101182001100004188282
B1244394616470N01310540EA0118001183001100004224287
B1244404616469N01310539EA0117801183001100009214270
B1244414616468N01310537EA0117801183001100009236271
B1244434616467N01310535EA0118001183001100010229278
B1244444616464N01310532EA0117601183001100013216268
B1244454616463N01310531EA0117701182001100007233270
B1244464616462N01310529EA0117501182001100017217260
B1244474616459N01310527EA0117601181001100019209259
B1244484616457N01310525EA0117801180001100022201257
B1244494616453N01310524EA0117901180001100026192246
B1244504616449N01310522EA0117601179001100030190250
B1244514616445N01310521EA0117401177001100032190241
B1244524616440N01310520EA0117201174001100032191240
B1244534616435N01310519EA0117001172001100031190240
B1244544616431N01310517EA0117001171001100029189244
B1244554616426N01310516EA0116901170001100028190245
B1244564616422N01310515EA0116601169001100030193249
B1244574616417N01310513EA0116401167001100033198236
B1244584616412N01310510EA0116301165001100036200233
B1244594616407N01310508EA0116201163001100035199221
B1245004616402N01310506EA0116001161001100034193216
B1245014616397N01310504EA0115501159001100037188211
B1245024616392N01310503EA0115201156001100040186207
B1245034616386N01310502EA0115101151001100036198203
B1245044616381N01310500EA0115201147001100030198211
B1245054616376N01310498EA0115301145001100027199207
B1245064616371N01310496EA0115301145001100031192206
B1245074616366N01310494EA0115401145001100030194200
B1245084616362N01310493EA0115301150001100031194199
B1245094616357N01310491EA0115301150001100035190198
B1245104616351N01310490EA0115301149001100037188195
B1245114616346N01310489EA0115501149001100037189192
B1245124616340N01310488EA0115701149001100036183191
B1245134616334N01310488EA0116001150001100037172185
B1245144616329N01310490EA0116001152001100036164176
B1245154616324N01310493EA0116001154001100032159168
B1245164616320N01310495EA0116101155001100031155164
B1245174616315N01310498EA0115901156001100032154160
B1245184616311N01310501EA0115801156001100035157160
B1245194616306N01310504EA0115801155001100036160161
B1245204616301N01310506EA0115801154001100034163165
B1245214616296N01310508EA0116101154001100032168167
B1245224616292N01310509EA0116201156001100028173171
B1245234616288N01310510EA0116201157001100024180176
B1245244616284N01310510EA0116201158001100025181183
B1245254616280N01310510EA0116301158001100030178183
B1245264616275N01310509EA0116201158001100031182180
B1245274616271N01310509EA0116101158001100027192184
B1245284616267N01310507EA0116201158001100024203193
B1245294616264N01310505EA0116101158001100024205201
B1245304616261N01310503EA0115901158001100026200203
B1245314616256N01310501EA0115901157001100031199199
B1245324616252N01310498EA0115901156001100032201199
B1245334616248N01310495EA0115801154001100031206200
B1245344616244N01310492EA0115701153001100028215204
B1245354616241N01310488EA0115801153001100025235212
B1245364616240N01310482EA0115601152001100025258230
B1245374616240N01310476EA0115401151001100026271249
B1245384616241N01310470EA0115501150001100026274262
B1245394616241N01310464EA0115801150001100024278265
B1245404616243N01310459EA0116101151001100024286268
B1245414616244N01310454EA0116201154001100021288276
B1245424616245N01310451EA0116201156001100015290276
B1245434616246N01310448EA0116201157001100015300273
B1245444616248N01310445EA0116101157001100021316277
B1245454616251N01310442EA0115801156001100031332298
B1245464616256N01310439EA0115501154001100040346320
B1245474616263N01310439EA0115501151001100047008337
B1245484616269N01310442EA0115501149001100040031003
B1245494616274N01310447EA0115601148001100038046029
B1245504616278N01310453EA0115701148001100036052047
B1245514616281N01310459EA0115801149001100036053054
B1245524616283N01310466EA0115701149001100035056055
B1245534616286N01310472EA0115601147001100038060058
B1245544616290N01310480EA0115501147001100044059063
B1245554616294N01310488EA0115301145001100048054060
B1245564616298N01310497EA0115401144001100050050053
B1245574616303N01310505EA0115501143001100049051048
B1245584616307N01310514EA0115601144001100047055050
B1245594616311N01310522EA0115801146001100045057055
B1246004616315N01310530EA0115801147001100043054056
B1246014616319N01310538EA0115701148001100044052053
B1246024616323N01310546EA0115601148001100049053050
B1246034616328N01310555EA0115601147001100052058051
B1246044616331N01310565EA0115601147001100053065057
B1246054616334N01310576EA0115601147001100053073065
B1246064616336N01310587EA0115601147001100052082075
B1246074616336N01310598EA0115601147001100050091086
B1246084616335N01310608EA0115701147001100048101099
B1246094616333N01310618EA0115501147001100045109111
B1246104616331N01310627EA0115401147001100040120121
B1246114616327N01310633EA0115401146001100038134136
B1246124616323N01310639EA0115401145001100040141152
B1246134616318N01310644EA0115501144001100041144160
B1246144616313N01310650EA0115901145001100039144161
B1246154616308N01310654EA0116001147001100034147163
B1246164616304N01310657EA0116201149001100029152168
B1246174616301N01310660EA0116501152001100024158177
B1246184616297N01310661EA0116701155001100023164186
B1246194616294N01310661EA0116801157001100025177192
B1246204616290N01310661EA0117001159001100027189201
B1246214616286N01310659EA0117101160001100027207207
B1246224616283N01310655EA0117201161001100022231221
B1246234616282N01310651EA0117101162001100020283237
B1246244616284N01310646EA0117201163001100028308270
B1246254616287N01310642EA0117301164001100027319290
B1246264616290N01310638EA0117401165001100024333297
B1246274616294N01310636EA0117501166001100025347305
B1246284616297N01310636EA0117501167001100026356316
B1246294616301N01310636EA0117501167001100028005325
B1246304616306N01310637EA0117501167001100032017337
B1246314616311N01310640EA0117401166001100036028353
B1246324616315N01310644EA0117501166001100038039010
B1246334616319N01310650EA0117701166001100038049024
B1246344616323N01310656EA0117801167001100036059037
B1246354616325N01310664EA0117901169001100036072052
B1246364616326N01310671EA0118201171001100037074071
B1246374616328N01310679EA0118301173001100035079073
B1246384616328N01310686EA0118401174001100033094081
B1246394616327N01310694EA0118401175001100036109104
B1246404616324N01310702EA0118501176001100039113124
B1246414616322N01310710EA0118601176001100043107126
B1246424616320N01310720EA0118701177001100045102117
B1246434616319N01310729EA0118701178001100044099110
B1246444616318N01310739EA0118901179001100044101107
B1246454616317N01310748EA0119001180001100045100108
B1246464616315N01310758EA0119101181001100044100107
B1246474616314N01310767EA0119301183001100041100107
B1246484616313N01310776EA0119301184001100039100108
B1246494616312N01310784EA0119301185001100041098108
B1246504616311N01310794EA0119201185001100044097105
B1246514616310N01310803EA0119101185001100047100104
E124651Waypoint CUARNAN T OFF                            reached
B1246524616308N01310813EA0119201184001100043109106
B1246534616306N01310820EA0119301185001100034123118
B1246544616303N01310825EA0119301186001100031138138
B1246554616299N01310830EA0119501186001100032143157
B1246564616295N01310834EA0119501187001100033141162
B1246574616291N01310839EA0119501187001100033140158
B1246584616287N01310842EA0119601188001100029143157
B1246594616284N01310845EA0119601189001100024155163
B1247004616280N01310846EA0119601190001100021178180
B1247014616277N01310844EA0119401189001100023209201
B1247024616275N01310840EA0119501188001100026237224
B1247034616274N01310834EA0119601188001100028260243
B1247044616274N01310828EA0119601188001100027280260
B1247054616275N01310822EA0119801189001100024284274
B1247064616275N01310818EA0120001191001100018270276
B1247074616275N01310814EA0120001192001100015250266
B1247084616274N01310811EA0119801192001100015244253
B1247094616273N01310808EA0119701192001100017250249
B1247104616272N01310804EA0119601191001100020263253
B1247114616272N01310799EA0119601189001100022274261
B1247124616273N01310794EA0119501188001100021282269
B1247134616274N01310790EA0119501188001100019293274
B1247144616275N01310787EA0119501188001100019305281
B1247154616277N01310783EA0119401188001100021311289
B1247164616280N01310780EA0119201188001100024311294
B1247174616282N01310775EA0119101186001100029313296
B1247184616286N01310771EA0119001185001100033319300
B1247194616290N01310767EA0119001183001100034332306
B1247204616295N01310764EA0119101183001100035351317
B1247214616300N01310764EA0119201184001100038008334
B1247224616306N01310767EA0119201184001100040022352
B1247234616312N01310771EA0119201184001100044030009
B1247244616318N01310777EA0119101184001100050033019
B1247254616324N01310783EA0119201183001100053034024
B1247264616331N01310790EA0119201183001100054035025
B1247274616337N01310797EA0119501184001100052041027
B1247284616343N01310805EA0119701185001100049047033
B1247294616347N01310813EA0119901188001100046049040
B1247304616352N01310820EA0120101190001100045050042
B1247314616356N01310829EA0120101192001100047058043
B1247324616359N01310838EA0120101193001100051073054
B1247334616360N01310849EA0120301193001100048095073
B1247344616358N01310859EA0120401194001100043107101
B1247354616356N01310867EA0120701196001100037122117
B1247364616352N01310874EA0120901198001100035133138
B1247374616349N01310878EA0121001200001100032141152
B1247384616345N01310882EA0121201201001100029148162
B1247394616341N01310885EA0121401204001100023157171
B1247404616339N01310887EA0121501206001100017173184
B1247414616336N01310887EA0121601208001100013198203
B1247424616335N01310885EA0121601209001100013229223
B1247434616334N01310882EA0121601209001100015252239
B1247444616334N01310878EA0121601209001100017269251
B1247454616334N01310874EA0121701209001100020283261
B1247464616335N01310870EA0121801210001100021298270
B1247474616337N01310866EA0121801210001100023313281
B1247484616340N01310863EA0121901211001100026320292
B1247494616343N01310860EA0122001212001100026327299
B1247504616347N01310857EA0122101213001100026335304
B1247514616351N01310855EA0122201213001100026341310
B1247524616355N01310853EA0122201214001100027345315
B1247534616359N01310852EA0122101215001100030348319
B1247544616364N01310851EA0122101215001100036355324
B1247554616370N01310851EA0122001214001100042008334
B1247564616377N01310855EA0122201214001100050030350
B1247574616383N01310862EA0122201213001100056043019
B1247584616389N01310870EA0122401213001100049044036
B1247594616394N01310877EA0122501215001100044044037
B1248004616399N01310883EA0122701216001100038047034
B1248014616402N01310890EA0122801218001100040051037
B1248024616406N01310898EA0122901219001100045056044
B1248034616410N01310907EA0122801219001100049060052
B1248044616413N01310916EA0122801219001100050063057
B1248054616416N01310926EA0123001220001100050069062
B1248064616419N01310937EA0123101221001100050075069
B1248074616421N01310947EA0123401222001100048076077
B1248084616422N01310957EA0123701225001100044073080
B1248094616424N01310966EA0123801227001100039071076
B1248104616426N01310974EA0123801229001100036074073
B1248114616427N01310982EA0123701230001100038086078
B1248124616427N01310991EA0123601229001100042098097
B1248134616425N01311000EA0123601228001100043110111
B1248144616423N01311008EA0123801228001100037121126
B1248154616420N01311014EA0123901229001100030134142
B1248164616416N01311018EA0123901231001100026145161
B1248174616413N01311021EA0123901232001100027150174
B1248184616409N01311023EA0123801231001100030157178
B1248194616405N01311025EA0123701230001100032168181
B1248204616400N01311026EA0123901230001100031172189
B1248214616396N01311027EA0124001230001100029169192
B1248224616391N01311028EA0124001231001100029167192
B1248234616387N01311029EA0124101231001100030169190
B1248244616382N01311030EA0124201232001100030172190
B1248254616378N01311031EA0124301232001100026172193
B1248264616375N01311031EA0124401234001100018177196
B1248274616373N01311031EA0124301235001100011208206
B1248284616372N01311028EA0124201235001100017272228
B1248294616373N01311024EA0124201235001100023291260
B1248304616375N01311020EA0124201234001100023312274
B1248314616378N01311016EA0124201234001100028336288
B1248324616382N01311014EA0124201234001100031352309
B1248334616387N01311014EA0124301233001100040005327
B1248344616394N01311016EA0124201232001100047016345
B1248354616401N01311021EA0124201232001100055037000
B1248364616407N01311030EA0124301232001100056053028
B1248374616411N01311040EA0124401233001100055065049
B1248384616414N01311051EA0124701235001100053069066
B1248394616417N01311061EA0124901237001100051072070
B1248404616419N01311071EA0125001239001100047074075
B1248414616421N01311081EA0125001241001100044079079
B1248424616422N01311090EA0124901242001100042084086
B1248434616422N01311100EA0124901242001100044092093
B1248444616421N01311110EA0124801241001100048102104
B1248454616419N01311120EA0124801240001100050109116
B1248464616416N01311130EA0124701239001100048112123
B1248474616413N01311139EA0124801239001100044114128
B1248484616410N01311148EA0124801239001100040116132
B1248494616407N01311155EA0124701240001100039120136
B1248504616404N01311162EA0124601239001100040122141
B1248514616401N01311170EA0124501238001100043122142
B1248524616397N01311178EA0124401237001100044121140
B1248534616394N01311186EA0124501237001100044121139
B1248544616390N01311195EA0124601237001100043120139
B1248554616387N01311203EA0124701237001100042119138
B1248564616384N01311211EA0124801238001100041115138
B1248574616382N01311219EA0124901239001100040113134
B1248584616379N01311226EA0124901241001100037115133
B1248594616377N01311233EA0124901242001100034120137
B1249004616374N01311239EA0124801242001100030130145
B1249014616371N01311243EA0124701241001100030146158
B1249024616366N01311245EA0124601240001100033158174
B1249034616361N01311247EA0124601239001100036160181
B1249044616356N01311249EA0124701238001100034156181
B1249054616352N01311252EA0124901239001100028150179
B1249064616349N01311255EA0125001241001100024146179
B1249074616346N01311257EA0125001242001100022152179
B1249084616343N01311258EA0124901243001100019173186
B1249094616341N01311256EA0124801242001100018228203
B1249104616340N01311252EA0124601241001100027266235
B1249114616340N01311246EA0124401240001100027291258
B1249124616343N01311241EA0124501239001100026317275
B1249134616346N01311238EA0124601239001100028338292
B1249144616351N01311236EA0124501239001100034349310
B1249154616356N01311236EA0124501239001100038000323
B1249164616362N01311237EA0124401237001100044012337
B1249174616369N01311240EA0124401236001100048026354
B1249184616375N01311246EA0124501235001100051037013
B1249194616381N01311253EA0124501236001100051045027
B1249204616386N01311261EA0124501236001100050054038
B1249214616390N01311270EA0124501237001100050062050
B1249224616393N01311280EA0124501237001100050068061
B1249234616395N01311291EA0124401237001100048073070
B1249244616397N01311301EA0124301236001100044080078
B1249254616397N01311310EA0124201236001100040090089
B1249264616397N01311318EA0124001235001100038104104
B1249274616395N01311326EA0123701233001100037118124
B1249284616391N01311332EA0123201231001100038136141
B1249294616386N01311337EA0122901227001100042158159
B1249304616380N01311339EA0122901223001100038174177
B1249314616375N01311339EA0123101220001100028180191
B1249324616372N01311339EA0123401218001100012204201
B1249334616369N01311339EA0123601217001100015187225
B1249344616367N01311338EA0123601221001100013186215
B1249354616364N01311338EA0123601222001100015188216
B1249364616362N01311337EA0123501222001100018194214
B1249374616359N01311336EA0123401221001100019205216
B1249384616356N01311334EA0123401221001100020219221
B1249394616354N01311330EA0123401220001100022232229
B1249404616352N01311326EA0123401220001100024240236
B1249414616350N01311322EA0123401220001100022243241
B1249424616349N01311317EA0123401220001100020238243
B1249434616347N01311314EA0123501221001100017239240
B1249444616346N01311311EA0123501221001100017251240
B1249454616346N01311307EA0123501222001100019273247
B1249464616346N01311302EA0123501222001100019284260
B1249474616347N01311299EA0123701223001100017289266
B1249484616348N01311295EA0123601223001100014286268
B1249494616348N01311292EA0123401223001100012276264
B1249504616348N01311290EA0123101222001100014265257
B1249514616348N01311286EA0122901220001100019262254
B1249524616348N01311281EA0122701217001100023263254
B1249534616347N01311276EA0122601214001100026263255
B1249544616346N01311270EA0122701213001100028259255
B1249554616345N01311265EA0122801213001100026254253
B1249564616344N01311260EA0122901213001100021251250
B1249574616343N01311256EA0123001215001100018253248
B1249584616343N01311252EA0123101216001100017261249
B1249594616343N01311248EA0123201217001100016277252
B1250004616343N01311244EA0123201218001100019287261
B1250014616344N01311240EA0123301219001100022287268
B1250024616345N01311235EA0123501219001100023287270
B1250034616346N01311231EA0123601220001100021294270
B1250044616348N01311227EA0123801222001100021307274
B1250054616350N01311223EA0124001224001100023319281
B1250064616354N01311220EA0124101226001100028329291
B1250074616358N01311217EA0124101227001100036338303
B1250084616364N01311214EA0124301228001100041344315
B1250094616370N01311212EA0124601229001100040348323
B1250104616376N01311211EA0124801231001100037350327
B1250114616381N01311209EA0125001234001100034349327
B1250124616386N01311208EA0125101236001100033347324
B1250134616391N01311206EA0125201238001100037348321
B1250144616397N01311205EA0125301239001100041350325
B1250154616404N01311204EA0125501240001100044353330
B1250164616410N01311203EA0125701242001100043003333
B1250174616417N01311206EA0125701244001100048027343
B1250184616423N01311212EA0125801246001100054046013
B1250194616427N01311222EA0125701247001100055064040
B1250204616430N01311233EA0125601247001100054080064
B1250214616430N01311244EA0125601247001100049094086
B1250224616428N01311254EA0125601247001100041117106
B1250234616424N01311260EA0125601247001100039146138
B1250244616419N01311263EA0125701248001100032168168
B1250254616415N01311264EA0126001250001100026176190
B1250264616411N01311266EA0126301252001100025163199
B1250274616407N01311267EA0126501254001100023161191
B1250284616404N01311269EA0126601256001100022161191
B1250294616401N01311270EA0126701257001100023163192
B1250304616398N01311272EA0126801258001100023166192
B1250314616394N01311273EA0127001259001100020170195
B1250324616392N01311273EA0127101260001100017178200
B1250334616389N01311273EA0127101261001100015192208
B1250344616387N01311272EA0127001262001100015212217
B1250354616385N01311269EA0127001261001100016232227
B1250364616384N01311265EA0127101261001100018242237
B1250374616382N01311262EA0127101262001100018250242
B1250384616382N01311257EA0127101262001100020262246
B1250394616382N01311253EA0127101262001100024278254
B1250404616383N01311247EA0127101262001100026294264
B1250414616386N01311242EA0127101262001100029307275
B1250424616389N01311237EA0127101262001100034312286
B1250434616392N01311231EA0127301261001100036308292
B1250444616396N01311225EA0127101261001100036301289
B1250454616398N01311218EA0127101262001100034300284
B1250464616402N01311212EA0127501263001100034306283
B1250474616405N01311206EA0127501263001100035314288
B1250484616409N01311201EA0127401264001100034319294
B1250494616413N01311196EA0127401264001100032319297
B1250504616416N01311192EA0127401265001100030317295
B1250514616420N01311188EA0127401265001100031316293
B1250524616423N01311183EA0127301265001100031320293
B1250534616427N01311179EA0127301264001100032328296
B1250544616432N01311176EA0127201264001100033338302
B1250554616437N01311174EA0127001263001100036353312
B1250564616443N01311174EA0126801262001100042008327
B1250574616449N01311178EA0126701260001100045029347
B1250584616454N01311184EA0126601257001100045045014
B1250594616459N01311191EA0126501256001100048055037
B1251004616463N01311200EA0126401254001100048061053
B1251014616466N01311210EA0126401253001100047070062
B1251024616467N01311220EA0126401253001100047081076
B1251034616468N01311230EA0126201252001100045090090
B1251044616468N01311240EA0126401252001100042097105
B1251054616467N01311249EA0126601252001100039098115
B1251064616466N01311257EA0126801254001100035099118
B1251074616465N01311265EA0127001256001100033103123
B1251084616463N01311272EA0127101258001100031107129
B1251094616462N01311278EA0127201260001100031109135
B1251104616460N01311285EA0127301261001100032107138
B1251114616458N01311292EA0127301262001100032106136
B1251124616457N01311299EA0127401262001100032109134
B1251134616455N01311305EA0127501263001100032112137
B1251144616453N01311311EA0127801265001100029113141
B1251154616452N01311317EA0128101266001100024115145
B1251164616450N01311320EA0128301269001100022129155
B1251174616447N01311323EA0128401271001100024152169
B1251184616443N01311325EA0128701273001100027168184
B1251194616439N01311325EA0128801275001100030184191
B1251204616435N01311322EA0129001276001100031215201
B1251214616432N01311317EA0129101278001100027250222
B1251224616432N01311311EA0129301280001100025276245
B1251234616433N01311306EA0129401282001100022300262
B1251244616436N01311303EA0129501283001100029333275
B1251254616441N01311301EA0129501283001100038354305
B1251264616447N01311302EA0129401283001100045009330
B1251274616454N01311304EA0129501283001100049023352
B1251284616461N01311309EA0129601284001100048035011
B1251294616466N01311315EA0129901285001100046042027
B1251304616470N01311323EA0130001287001100042058035
B1251314616472N01311331EA0130301290001100038076060
B1251324616472N01311339EA0130501292001100035093088
B1251334616471N01311346EA0130701294001100033106114
B1251344616469N01311353EA0130801296001100031119132
B1251354616466N01311358EA0131001298001100030135146
B1251364616462N01311361EA0131001299001100031155163
B1251374616458N01311363EA0131201301001100031175178
B1251384616453N01311362EA0131301301001100029198193
B1251394616450N01311359EA0131401302001100028225210
B1251404616448N01311353EA0131601303001100026251228
B1251414616447N01311347EA0131701305001100023281245
B1251424616448N01311342EA0131801306001100024312264
B1251434616451N01311338EA0131801307001100027326284
B1251444616455N01311334EA0131901308001100030336298
B1251454616460N01311332EA0131901308001100038355309
B1251464616466N01311333EA0132001308001100043010333
B1251474616472N01311335EA0132001309001100044017354
B1251484616479N01311339EA0132201309001100047031003
B1251494616484N01311345EA0132301310001100045043022
B1251504616489N01311352EA0132401312001100041057038
B1251514616491N01311360EA0132601314001100038071059
B1251524616492N01311368EA0132801316001100036083080
B1251534616492N01311376EA0132801318001100035094098
B1251544616491N01311384EA0133001319001100037107114
B1251554616488N01311392EA0133201320001100039119128
B1251564616485N01311399EA0133301321001100037130140
B1251574616481N01311403EA0133401323001100029158152
B1251584616477N01311404EA0133601325001100028187180
B1251594616474N01311401EA0133601327001100024226202
B1252004616472N01311396EA0133601328001100030247229
B1252014616470N01311390EA0133801329001100030252243
B1252024616468N01311384EA0133901330001100027255247
B1252034616467N01311379EA0134201332001100023256248
B1252044616466N01311374EA0134301335001100021257248
B1252054616466N01311370EA0134401336001100021261248
B1252064616466N01311365EA0134401337001100022278251
B1252074616467N01311360EA0134401338001100027304262
B1252084616471N01311356EA0134201337001100039334283
B1252094616477N01311354EA0134201336001100045355315
B1252104616484N01311354EA0134201335001100048014338
B1252114616490N01311359EA0134301335001100048033001
B1252124616495N01311365EA0134301335001100046052026
B1252134616498N01311374EA0134401336001100042070052
B1252144616500N01311382EA0134501337001100038088077
B1252154616498N01311390EA0134601337001100036112104
B1252164616496N01311397EA0134601338001100034122132
B1252174616493N01311402EA0134601338001100031135144
B1252184616489N01311407EA0134701340001100030137158
B1252194616486N01311412EA0134901340001100033130161
B1252204616483N01311418EA0135101341001100033126152
B1252214616480N01311423EA0135101342001100031126148
B1252224616477N01311428EA0135101343001100029126150
B1252234616474N01311434EA0135201344001100031125151
B1252244616471N01311440EA0135301344001100036130148
B1252254616467N01311446EA0135601345001100041136150
B1252264616463N01311452EA0135901347001100040139153
B1252274616458N01311457EA0136101350001100036143157
B1252284616454N01311461EA0136501353001100031141162
B1252294616451N01311466EA0136601355001100029134163
B1252304616448N01311471EA0136601358001100033126158
B1252314616445N01311477EA0136701359001100035122148
B1252324616442N01311483EA0136601359001100034120142
B1252334616440N01311490EA0136601359001100035119141
B1252344616437N01311497EA0136501359001100039111140
B1252354616436N01311506EA0136501358001100045099129
B1252364616435N01311516EA0136601357001100048088113
B1252374616436N01311526EA0136601357001100045080099
B1252384616437N01311536EA0136601358001100042075090
B1252394616439N01311544EA0136701358001100041067085
B1252404616442N01311553EA0136701359001100043058074
B1252414616446N01311561EA0136701359001100046050061
B1252424616451N01311568EA0136801359001100047042049
B1252434616457N01311574EA0137001360001100045035038
B1252444616462N01311579EA0137201361001100042028029
B1252454616468N01311583EA0137201363001100040021019
B1252464616474N01311586EA0137201364001100040015009
B1252474616480N01311587EA0137201365001100040010002
B1252484616486N01311588EA0137201365001100040000355
B1252494616492N01311587EA0137201365001100040345344
B1252504616497N01311584EA0137001365001100036332327
B1252514616502N01311580EA0137201365001100031325313
B1252524616505N01311576EA0137501366001100026320303
B1252534616508N01311572EA0137501367001100023310296
B1252544616510N01311567EA0137501368001100024292285
B1252554616511N01311562EA0137901369001100025282273
B1252564616511N01311557EA0138101371001100021275266
B1252574616511N01311552EA0138201374001100016266259
B1252584616511N01311549EA0138201375001100016258251
B1252594616510N01311545EA0138201376001100021250247
B1253004616508N01311540EA0138301376001100027247244
B1253014616507N01311534EA0138501376001100029241242
B1253024616504N01311529EA0138801378001100026236238
B1253034616502N01311525EA0139001380001100024237235
B1253044616500N01311521EA0139501383001100020244236
B1253054616499N01311517EA0139701386001100016245240
B1253064616498N01311514EA0139701389001100015222239
B1253074616496N01311512EA0139801391001100021205226
B1253084616492N01311510EA0139801392001100028206215
B1253094616488N01311506EA0139901392001100032219214
B1253104616485N01311501EA0140101393001100033237223
B1253114616483N01311495EA0140401394001100031258236
B1253124616483N01311488EA0140601396001100031280251
B1253134616486N01311482EA0140601399001100037321267
B1253144616491N01311479EA0140701400001100044347303
B1253154616498N01311478EA0140901401001100043006331
B1253164616504N01311480EA0140901403001100039019352
B1253174616509N01311484EA0140901404001100042027006
B1253184616515N01311488EA0141001405001100043032018
B1253194616519N01311496EA0140901406001100049055025
B1253204616522N01311506EA0140901406001100049077056
B1253214616523N01311516EA0141001407001100047094085
B1253224616522N01311526EA0141101408001100043109106
B1253234616519N01311534EA0141301409001100041121124
B1253244616516N01311540EA0141301410001100035136138
B1253254616512N01311545EA0141501411001100033147155
B1253264616507N01311547EA0141601411001100032159166
B1253274616502N01311549EA0141601412001100032169176
B1253284616498N01311549EA0141801413001100028184185
B1253294616494N01311547EA0141901415001100025222198
B1253304616492N01311542EA0142201417001100028247226
B1253314616491N01311536EA0142201418001100029257243
B1253324616491N01311530EA0142401420001100029271251
B1253334616492N01311523EA0142601422001100030292261
B1253344616495N01311518EA0142801424001100033320277
B1253354616500N01311514EA0142601426001100037344301
B1253364616506N01311513EA0142701427001100043356326
B1253374616513N01311513EA0142701427001100044006341
B1253384616520N01311514EA0142801428001100046013353
B1253394616526N01311518EA0142701429001100046029002
B1253404616532N01311524EA0142701429001100049044022
B1253414616536N01311532EA0142801428001100049060041
B1253424616539N01311542EA0142801428001100048069063
B1253434616541N01311552EA0142601428001100046082073
B1253444616541N01311562EA0142701429001100043098091
B1253454616539N01311571EA0143001429001100042111111
B1253464616537N01311579EA0143001429001100041119126
B1253474616533N01311586EA0143001429001100039125135
B1253484616529N01311592EA0143101429001100039132142
B1253494616525N01311598EA0143201430001100040138149
B1253504616521N01311603EA0143601432001100038146154
B1253514616516N01311607EA0144001434001100035153162
B1253524616511N01311610EA0144201437001100032162170
B1253534616506N01311611EA0144401440001100029175179
B1253544616502N01311610EA0144701443001100024188190
B1253554616499N01311608EA0144801446001100016211202
B1253564616497N01311604EA0145001448001100025240220
B1253574616495N01311598EA0145101450001100034254238
B1253584616494N01311591EA0145501453001100032260249
B1253594616494N01311585EA0146201456001100025270253
B1254004616494N01311580EA0146601461001100019270259
B1254014616493N01311576EA0146901467001100014263257
B1254024616493N01311573EA0147201470001100013257250
B1254034616493N01311570EA0147301473001100016266246
B1254044616493N01311566EA0147301474001100022288253
B1254054616496N01311561EA0147401475001100034312270
B1254064616500N01311556EA0147501476001100035326295
B1254074616505N01311552EA0147901477001100034346308
B1254084616510N01311552EA0147901478001100036006327
B1254094616515N01311554EA0147901479001100040029349
B1254104616520N01311560EA0147901480001100044043020
B1254114616525N01311567EA0147901479001100048057040
B1254124616528N01311576EA0147901479001100048064058
B1254134616529N01311586EA0148001479001100044085068
B1254144616529N01311595EA0148101479001100045104095
B1254154616526N01311604EA0148201480001100042123117
B1254164616522N01311610EA0148301481001100038141139
B1254174616517N01311614EA0148501483001100034156157
B1254184616512N01311616EA0148701485001100031167172
B1254194616508N01311616EA0148601487001100027179183
B1254204616504N01311615EA0149101489001100024191194
B1254214616500N01311613EA0149501491001100025202204
B1254224616497N01311611EA0149901493001100028206211
B1254234616493N01311607EA0150201497001100028211214
B1254244616490N01311604EA0150501501001100022216217
B1254254616487N01311601EA0150801505001100016226222
B1254264616486N01311598EA0150901507001100015235229
B1254274616484N01311594EA0150901509001100018237235
B1254284616483N01311590EA0150801509001100023235236
B1254294616480N01311586EA0150801509001100026231235
B1254304616478N01311582EA0151001509001100027227232
B1254314616475N01311577EA0151001509001100024225229
B1254324616473N01311574EA0151101510001100022228228
B1254334616471N01311570EA0151101511001100020243230
B1254344616470N01311565EA0151101512001100023268240
B1254354616471N01311560EA0151001511001100027290258
B1254364616473N01311554EA0150901510001100031306275
B1254374616476N01311549EA0151001509001100031313289
B1254384616480N01311544EA0151001509001100029311295
B1254394616482N01311539EA0151001510001100028307292
B1254404616485N01311534EA0150901510001100030309288
B1254414616489N01311529EA0150901509001100032318291
B1254424616493N01311525EA0150901509001100034323300
B1254434616497N01311521EA0151001509001100032324305
B1254444616501N01311516EA0151001509001100031326306
B1254454616505N01311513EA0150901509001100032329306
B1254464616509N01311509EA0150901509001100034332309
B1254474616514N01311506EA0150701508001100038333313
B1254484616520N01311502EA0150601507001100042333316
B1254494616525N01311497EA0150801506001100043330318
B1254504616531N01311492EA0151101507001100040323315
B1254514616535N01311487EA0151401508001100035313307
B1254524616538N01311481EA0151401510001100032307297
B1254534616541N01311476EA0151401512001100031306290
B1254544616544N01311470EA0151301514001100033308289
B1254554616547N01311464EA0151101513001100037308292
B1254564616551N01311458EA0151001512001100039305294
B1254574616554N01311450EA0150901510001100040301292
B1254584616557N01311443EA0150901509001100037299288
B1254594616560N01311436EA0150801508001100035302285
B1255004616563N01311430EA0150801508001100034308287
B1255014616566N01311424EA0150701508001100035313292
B1255024616570N01311419EA0150601508001100035315296
B1255034616574N01311414EA0150801507001100033316298
B1255044616577N01311409EA0150801507001100031316298
B1255054616581N01311405EA0151001508001100030316297
B1255064616584N01311400EA0151001509001100029317297
B1255074616587N01311396EA0150901509001100029317297
B1255084616591N01311391EA0150601508001100032314297
B1255094616594N01311386EA0150401507001100035311296
B1255104616598N01311380EA0150301504001100037310295
B1255114616601N01311374EA0150101502001100034310295
B1255124616605N01311368EA0149901501001100030313294
B1255134616608N01311364EA0149801499001100025315294
B1255144616610N01311360EA0149701498001100023310293
B1255154616612N01311356EA0149701496001100024304287
B1255164616614N01311351EA0149601496001100026300284
B1255174616616N01311346EA0149601495001100027296281
B1255184616618N01311341EA0149601494001100027296279
B1255194616620N01311336EA0149401494001100027301280
B1255204616622N01311331EA0149601494001100027309284
B1255214616625N01311327EA0149601494001100028313290
B1255224616628N01311322EA0149601495001100030310293
B1255234616631N01311317EA0149601495001100031304292
B1255244616633N01311311EA0149701495001100033301288
B1255254616636N01311305EA0149901495001100036305286
B1255264616640N01311298EA0150101496001100038309290
B1255274616643N01311292EA0150401498001100035310295
B1255284616647N01311286EA0150501500001100031307294
B1255294616649N01311281EA0150601502001100031301290
B1255304616652N01311275EA0150801504001100033298286
B1255314616654N01311269EA0151101506001100033303283
B1255324616657N01311263EA0151401508001100033311287
B1255334616661N01311258EA0151501511001100036319294
B1255344616666N01311253EA0151801514001100039321303
B1255354616670N01311247EA0152101516001100040318306
B1255364616674N01311242EA0152401519001100037311303
B1255374616678N01311236EA0152701522001100033310296
B1255384616681N01311231EA0153001525001100031315293
B1255394616684N01311226EA0153201528001100031318297
B1255404616688N01311222EA0153401530001100033316299
B1255414616692N01311216EA0153701533001100036313299
B1255424616695N01311211EA0154001535001100037312297
B1255434616699N01311205EA0154501538001100034312296
B1255444616702N01311200EA0154901542001100031311295
B1255454616705N01311195EA0155301546001100029311293
B1255464616708N01311190EA0155601550001100029310292
B1255474616710N01311185EA0155801554001100030308292
B1255484616713N01311180EA0156201557001100030307291
B1255494616716N01311175EA0156501560001100029305290
B1255504616718N01311170EA0156801563001100027301288
B1255514616720N01311165EA0157001567001100025291283
B1255524616721N01311160EA0156701569001100029280274
B1255534616720N01311154EA0156901570001100029263268
B1255544616719N01311148EA0156901570001100032247255
B1255554616716N01311142EA0157001570001100034229244
B1255564616712N01311138EA0157001570001100035209231
B1255574616707N01311135EA0157001570001100035191215
B1255584616702N01311135EA0157301571001100033177202
B1255594616697N01311136EA0157501573001100030162191
B1256004616693N01311139EA0157601576001100031145180
B1256014616690N01311144EA0157501577001100034128165
B1256024616687N01311151EA0157701578001100034113146
B1256034616686N01311158EA0157701578001100032102130
B1256044616685N01311165EA0157401578001100033091115
B1256054616685N01311173EA0157501577001100037084098
B1256064616686N01311182EA0157301576001100043080087
B1256074616688N01311191EA0157101574001100048072081
B1256084616691N01311202EA0157401574001100054062071
B1256094616695N01311212EA0157701574001100053054060
B1256104616700N01311220EA0157801576001100056046050
B1256114616705N01311227EA0158201578001100046038041
B1256124616711N01311233EA0158401581001100044033031
B1256134616717N01311238EA0158601584001100044026024
B1256144616723N01311242EA0158601586001100046018017
B1256154616730N01311245EA0158701587001100047011009
B1256164616737N01311246EA0158901589001100046003002
B1256174616743N01311246EA0159301591001100044352352
B1256184616750N01311244EA0159601593001100042340341
B1256194616755N01311240EA0159801596001100040327328
B1256204616760N01311234EA0159801599001100041315314
B1256214616764N01311227EA0160101601001100040307303
B1256224616768N01311220EA0160501603001100037301296
B1256234616770N01311213EA0160801606001100033294289
B1256244616772N01311207EA0161101609001100029289282
B1256254616774N01311201EA0161501613001100028293276
B1256264616776N01311195EA0161701616001100034302279
B1256274616779N01311189EA0161601618001100036311289
B1256284616783N01311182EA0162001620001100040317297
B1256294616787N01311176EA0162301621001100040315304
B1256304616791N01311170EA0162601624001100038305302
B1256314616794N01311162EA0162801626001100035289292
B1256324616795N01311155EA0163001629001100033278277
B1256334616795N01311149EA0163401631001100029278267
B1256344616796N01311143EA0163901634001100022282265
B1256354616797N01311139EA0164101638001100018286265
B1256364616797N01311136EA0164201641001100018292265
B1256374616798N01311132EA0164301643001100023293270
B1256384616800N01311127EA0164501644001100027290275
B1256394616801N01311121EA0164701645001100027280275
B1256404616801N01311116EA0164901647001100025266266
B1256414616800N01311111EA0165001650001100023248254
B1256424616798N01311106EA0165001652001100025234240
B1256434616796N01311102EA0165101653001100025234230
B1256444616794N01311097EA0165101653001100026240231
B1256454616792N01311092EA0165001653001100027241234
B1256464616790N01311087EA0164901653001100028239236
B1256474616788N01311082EA0164801652001100030239234
B1256484616785N01311076EA0164601650001100034242235
B1256494616783N01311069EA0164801649001100035246237
B1256504616781N01311062EA0165001648001100032250241
B1256514616780N01311056EA0165401650001100028252243
B1256524616778N01311051EA0165701653001100022248244
B1256534616777N01311047EA0166001656001100019242240
B1256544616775N01311043EA0166201660001100018238235
B1256554616774N01311040EA0166501663001100020233232
B1256564616772N01311036EA0166701665001100024231229
B1256574616769N01311032EA0166901667001100027233228
B1256584616767N01311026EA0167201669001100029236230
B1256594616764N01311021EA0167701672001100029236232
B1257004616762N01311016EA0168101675001100027236232
B1257014616760N01311012EA0168601680001100023233231
B1257024616757N01311008EA0169101685001100021225229
B1257034616755N01311005EA0169401690001100022215224
B1257044616752N01311003EA0169601694001100026202216
B1257054616747N01311001EA0169901697001100032189207
B1257064616742N01311001EA0170301700001100035178196
B1257074616737N01311001EA0170701703001100032173187
B1257084616733N01311002EA0171101707001100028176184
B1257094616729N01311002EA0171401712001100025185187
B1257104616725N01311001EA0171601715001100024204195
B1257114616722N01310998EA0171801718001100027227209
B1257124616720N01310993EA0172001720001100027251225
B1257134616720N01310987EA0172201722001100025275243
B1257144616721N01310982EA0172401724001100025294260
B1257154616723N01310977EA0172501726001100028305275
B1257164616726N01310972EA0172701727001100034315286
B1257174616730N01310967EA0173101729001100036326298
B1257184616735N01310962EA0173601731001100038330310
B1257194616740N01310958EA0174001736001100035326314
B1257204616744N01310954EA0174401740001100032324309
B1257214616748N01310951EA0174801745001100029334305
B1257224616753N01310949EA0175001749001100033359313
B1257234616758N01310951EA0175201752001100039016343
B1257244616764N01310954EA0175501755001100043032008
B1257254616769N01310960EA0175701758001100046041029
B1257264616774N01310968EA0176001760001100048049041
B1257274616778N01310976EA0176301763001100049061050
B1257284616781N01310986EA0176701766001100047075066
B1257294616782N01310996EA0176901770001100045087083
B1257304616782N01311006EA0177101773001100043095097
B1257314616781N01311015EA0177401776001100040104108
B1257324616779N01311023EA0177701779001100039117119
B1257334616776N01311030EA0178001781001100037130132
B1257344616772N01311035EA0178201784001100036143146
B1257354616767N01311039EA0178501787001100035158159
B1257364616762N01311040EA0178901789001100034173172
B1257374616757N01311040EA0179201792001100032188185
B1257384616752N01311038EA0179401795001100030200198
B1257394616748N01311035EA0179801798001100029206208
B1257404616744N01311031EA0180101802001100024212213
B1257414616741N01311028EA0180401805001100018228218
B1257424616740N01311024EA0180801808001100019252230
B1257434616739N01311020EA0181001811001100024262246
B1257444616739N01311014EA0181201813001100028266254
B1257454616739N01311007EA0181501816001100030268258
B1257464616739N01311001EA0181701818001100029271260
B1257474616739N01310994EA0181901821001100028279262
B1257484616741N01310988EA0182101823001100030293268
B1257494616743N01310982EA0182401826001100034307280
B1257504616747N01310976EA0182801828001100035317292
B1257514616751N01310972EA0183001830001100032326301
B1257524616755N01310969EA0183401834001100030338308
B1257534616760N01310967EA0183701838001100032351318
B1257544616765N01310967EA0184001841001100038004332
B1257554616771N01310968EA0184201843001100045014349
B1257564616778N01310972EA0184601846001100050021004
B1257574616785N01310976EA0184801849001100048028013
B1257584616791N01310982EA0185101852001100043037021
B1257594616795N01310987EA0185301855001100040045030
B1258004616799N01310994EA0185501858001100042051040
B1258014616803N01311002EA0185601859001100046055049
B1258024616807N01311011EA0185801860001100047061054
B1258034616810N01311020EA0186201862001100045072062
B1258044616811N01311030EA0186601865001100041084076
B1258054616811N01311038EA0186901869001100037096093
B1258064616810N01311046EA0187201873001100036105109
B1258074616808N01311054EA0187401876001100036110120
B1258084616806N01311061EA0187501878001100037113125
B1258094616804N01311068EA0187601880001100039118128
B1258104616800N01311076EA0187901882001100039128133
B1258114616796N01311082EA0188201884001100038140143
B1258124616792N01311086EA0188401886001100034152156
B1258134616787N01311089EA0188701889001100032163168
B1258144616782N01311090EA0189001892001100032173179
B1258154616777N01311090EA0189101895001100035182187
B1258164616772N01311089EA0189101897001100035190193
B1258174616767N01311087EA0189401899001100036194200
B1258184616761N01311085EA0189801901001100035195203
B1258194616756N01311083EA0190001903001100034192204
B1258204616750N01311081EA0190201904001100035195202
B1258214616745N01311078EA0190301906001100036204204
B1258224616740N01311073EA0190601907001100040220211
B1258234616736N01311068EA0190801909001100036226223
B1258244616734N01311062EA0191001911001100031246228
B1258254616733N01311056EA0191101913001100026264244
B1258264616733N01311050EA0191001913001100024268259
B1258274616733N01311045EA0190701914001100026277265
B1258284616734N01311039EA0190501915001100030279274
B1258294616735N01311032EA0190501916001100032277275
B1258304616735N01311024EA0190601915001100039270283
B1258314616735N01311015EA0191001917001100037270281
B1258324616735N01311008EA0191301917001100027274276
B1258334616736N01311003EA0191601922001100024286278
B1258344616737N01310997EA0191801924001100024291285
B1258354616739N01310992EA0191901926001100029301292
B1258364616742N01310987EA0191901922001100032304300
B1258374616745N01310981EA0191901923001100037312310
B1258384616750N01310976EA0191901923001100040336324
B1258394616756N01310974EA0192001924001100042354341
B1258404616762N01310974EA0192101924001100040009347
B1258414616768N01310975EA0192201925001100041014344
B1258424616774N01310979EA0192201925001100042029352
B1258434616779N01310984EA0192101925001100044038026
B1258444616784N01310991EA0192301925001100046052083
B1258454616788N01311000EA0192601925001100044064093
B1258464616790N01311008EA0192801927001100041075100
B1258474616791N01311017EA0193101928001100038090108
B1258484616790N01311025EA0193301933001100035103118
B1258494616788N01311032EA0193501936001100034118130
B1258504616785N01311038EA0193501937001100036135142
B1258514616781N01311042EA0193301938001100036151157
B1258524616776N01311045EA0193501937001100032164170
B1258534616771N01311046EA0193501938001100029173181
B1258544616766N01311046EA0193701939001100029182190
B1258554616762N01311044EA0193901940001100030191197
B1258564616757N01311042EA0194001941001100031205203
B1258574616753N01311038EA0194201943001100031216214
B1258584616749N01311034EA0194301944001100027220221
B1258594616746N01311030EA0194401945001100025218224
B1259004616743N01311027EA0194601947001100023211222
B1259014616740N01311024EA0194501948001100023201217
B1259024616737N01311022EA0194501949001100022202210
B1259034616734N01311020EA0194501949001100023216211
B1259044616731N01311016EA0194501949001100026232220
B1259054616729N01311011EA0194601949001100028240232
B1259064616727N01311006EA0194701949001100029245238
B1259074616726N01311000EA0194801950001100029252242
B1259084616725N01310994EA0194901951001100030261247
B1259094616724N01310986EA0195101952001100035268255
B1259104616724N01310978EA0195401953001100037270261
B1259114616725N01310970EA0195701955001100034269264
B1259124616725N01310964EA0196101959001100029269262
B1259134616725N01310958EA0196301962001100027273261
B1259144616725N01310952EA0196401965001100028282263
B1259154616727N01310945EA0196401967001100032291271
B1259164616729N01310939EA0196501968001100036305280
B1259174616734N01310934EA0196601969001100038330294
B1259184616739N01310930EA0196601969001100039338319
B1259194616745N01310929EA0196701969001100040356327
B1259204616751N01310929EA0196701969001100039006346
B1259214616757N01310930EA0196701970001100036018358
B1259224616762N01310934EA0196801971001100037028011
B1259234616767N01310938EA0196701971001100040035025
B1259244616772N01310944EA0196601971001100043044042
B1259254616776N01310951EA0196801970001100044056057
B1259264616779N01310960EA0196801970001100043069071
B1259274616781N01310969EA0196801970001100041082083
B1259284616781N01310978EA0196801971001100040096100
B1259294616780N01310986EA0196901972001100039107115
B1259304616777N01310994EA0196901973001100039116129
B1259314616774N01311001EA0196901973001100037126140
B1259324616770N01311007EA0197001973001100036140155
B1259334616766N01311011EA0197101974001100032154173
B1259344616762N01311013EA0197101974001100028170190
B1259354616758N01311013EA0197101975001100025191208
B1259364616754N01311010EA0197001975001100026211219
B1259374616750N01311006EA0196901975001100029221231
B1259384616747N01311001EA0196801974001100033229235
B1259394616744N01310995EA0196701974001100033246240
B1259404616743N01310988EA0197101973001100034267253
B1259414616743N01310981EA0197301973001100037276267
B1259424616744N01310973EA0197601973001100037280273
B1259434616746N01310965EA0197701974001100035286275
B1259444616748N01310958EA0198001974001100034292280
B1259454616750N01310951EA0198101976001100036301284
B1259464616754N01310945EA0198101977001100040309292
B1259474616758N01310938EA0198101977001100041315301
B1259484616763N01310932EA0198301977001100041322307
B1259494616768N01310927EA0198101978001100041331312
B1259504616774N01310924EA0198101978001100040342321
B1259514616780N01310921EA0197901977001100042345333
B1259524616786N01310921EA0197701976001100041005336
B1259534616792N01310923EA0197701975001100042012359
B1259544616799N01310926EA0197501973001100044018013
B1259554616805N01310930EA0197501973001100044031031
B1259564616810N01310937EA0197501972001100046046045
B1259574616815N01310945EA0197401973001100044056060
B1259584616818N01310953EA0197201973001100042066071
B1259594616820N01310962EA0197301972001100041077082
B1300004616821N01310971EA0197301972001100039088091
B1300014616819N01310979EA0197201971001100038111103
B1300024616816N01310987EA0197201971001100040132130
B1300034616812N01310993EA0197101970001100040138147
B1300044616807N01310999EA0197001971001100039136151
B1300054616803N01311005EA0197001971001100038135156
B1300064616799N01311010EA0196801970001100038138159
B1300074616794N01311016EA0196801969001100040146163
B1300084616788N01311020EA0196601968001100044154166
B1300094616782N01311024EA0196401967001100048154162
B1300104616775N01311029EA0196801966001100050152169
B1300114616769N01311034EA0196901966001100046150171
B1300124616763N01311038EA0197301969001100040153174
B1300134616758N01311041EA0197501973001100034159181
B1300144616753N01311043EA0197601975001100033168190
B1300154616748N01311044EA0197501976001100036174194
B1300164616742N01311045EA0197501977001100040178201
B1300174616736N01311045EA0197601977001100041181208
B1300184616730N01311044EA0197801978001100038183208
B1300194616725N01311044EA0198001980001100035184205
B1300204616719N01311043EA0198001982001100035182207
B1300214616714N01311043EA0198201983001100038176193
B1300224616708N01311044EA0198201984001100035168189
E130022PEVBackground
B1300234616704N01311046EA0198301985001100034162185
B1300244616699N01311048EA0198301986001100034158190
B1300254616696N01311050EA0198201987001100033158187
B1300264616692N01311052EA0197901987001100034159186
B1300274616687N01311055EA0197801984001100038158187
B1300284616681N01311059EA0197701983001100040152174
B1300294616676N01311063EA0197801982001100039151179
B1300304616671N01311067EA0197801982001100034155161
B1300314616667N01311070EA0197701982001100031150174
B1300324616663N01311074EA0197601982001100034141167
B1300334616658N01311079EA0197401980001100039137182
B1300344616654N01311085EA0197101978001100040141173
B1300354616649N01311090EA0197001976001100041148177
B1300364616643N01311094EA0197101974001100044152183
B1300374616637N01311099EA0197201973001100047149180
B1300384616632N01311105EA0197301974001100046145176
B1300394616626N01311110EA0197301975001100041146184
B1300404616621N01311114EA0197401977001100037148187
B1300414616616N01311118EA0197501978001100037150195
B1300424616611N01311122EA0197601978001100039151194
B1300434616606N01311126EA0197701978001100039154199
B1300444616601N01311129EA0197801979001100035158199
B1300454616596N01311132EA0197601980001100032164207
B1300464616589N01311134EA0197301981001100064167198
B1300474616584N01311135EA0196801980001100025174198
B1300484616580N01311135EA0196401977001100029179197
B1300494616576N01311136EA0195901972001100037176195
B1300504616570N01311137EA0195501967001100044170193
B1300514616563N01311138EA0195301962001100044164192
B1300524616557N01311141EA0195101959001100039165191
B1300534616552N01311143EA0195001957001100036169190
B1300544616547N01311144EA0194801955001100035168182
B1300554616542N01311146EA0194401953001100037163175
B1300564616536N01311148EA0194001950001100040160176
B1300574616531N01311151EA0193601946001100041161175
B1300584616525N01311154EA0193201943001100041164166
B1300594616519N01311156EA0193101940001100044169201
B1301004616512N01311157EA0192701936001100046171206
B1301014616506N01311159EA0192401932001100045168180
B1301024616499N01311161EA0192101929001100043161172
B1301034616494N01311165EA0191901926001100041157171
B1301044616488N01311168EA0191801924001100039158167
B1301054616482N01311171EA0191501922001100041162170
B1301064616476N01311173EA0191401919001100045164166
B1301074616470N01311176EA0191201917001100044164172
B1301084616464N01311178EA0191101915001100037164164
B1301094616459N01311180EA0190901915001100031165168
B1301104616455N01311182EA0190601913001100031169164
B1301114616450N01311183EA0190301911001100036171171
B1301124616444N01311184EA0189901908001100041170171
B1301134616438N01311186EA0189701904001100046169170
B1301144616431N01311188EA0189601901001100046169173
B1301154616424N01311189EA0189401899001100043171175
B1301164616418N01311190EA0189401898001100040172171
B1301174616413N01311191EA0189301897001100038171166
B1301184616407N01311193EA0189101897001100038169173
B1301194616401N01311194EA0188701895001100040169169
B1301204616395N01311196EA0188501893001100043170182
B1301214616389N01311197EA0188301890001100045169177
B1301224616382N01311199EA0188201887001100044169187
B1301234616376N01311201EA0188001885001100044169182
B1301244616369N01311203EA0187701883001100045167185
B1301254616362N01311205EA0187601881001100046164188
B1301264616356N01311208EA0187401880001100046162187
B1301274616349N01311211EA0187501878001100045162190
B1301284616343N01311214EA0187601877001100044162170
B1301294616337N01311217EA0187701877001100044158170
B1301304616332N01311220EA0187801877001100040157160
B1301314616327N01311223EA0188101882001100037161177
B1301324616322N01311225EA0188101884001100034169188
B1301334616317N01311226EA0188201885001100034176162
B1301344616312N01311226EA0187901885001100035180168
B1301354616307N01311227EA0187401884001100037179165
B1301364616300N01311227EA0187001884001100045177165
B1301374616293N01311228EA0186801878001100046176155
B1301384616286N01311228EA0186701875001100047174159
B1301394616279N01311229EA0186601872001100043176163
B1301404616273N01311229EA0186401871001100040181165
B1301414616268N01311229EA0186001869001100037183162
B1301424616263N01311228EA0185701867001100037178168
B1301434616257N01311229EA0185401864001100040170166
B1301444616251N01311230EA0185101861001100043171174
B1301454616244N01311232EA0185001859001100044175176
B1301464616238N01311232EA0184901856001100044180178
E130146PEVForeground
B1301474616231N01311232EA0184701854001100041180166
B1301484616225N01311233EA0184401852001100038175167
B1301494616220N01311234EA0184301850001100038170155
B1301504616214N01311235EA0184101847001100040169161
B1301514616208N01311236EA0183801845001100043172162
B1301524616201N01311237EA0183701842001100045176159
B1301534616195N01311238EA0183701840001100045175151
B1301544616188N01311239EA0183601838001100045173154
B1301554616182N01311240EA0183601836001100043172157
B1301564616176N01311241EA0183501835001100040173164
B1301574616170N01311242EA0183401835001100038175163
B1301584616164N01311242EA0183301833001100039178166
B1301594616159N01311242EA0183101832001100041178166
B1302004616152N01311242EA0183001830001100043176168
B1302014616146N01311243EA0182901829001100043172169
B1302024616140N01311245EA0182801827001100042168169
B1302034616134N01311246EA0182601826001100040169168
B1302044616128N01311248EA0182501825001100042172170
B1302054616122N01311249EA0182301824001100042171170
B1302064616115N01311251EA0182201822001100041167170
B1302074616110N01311253EA0182001821001100040164167
B1302084616104N01311255EA0181901822001100037166169
B1302094616099N01311257EA0181901821001100038171170
B1302104616093N01311258EA0181501819001100042173167
B1302114616086N01311259EA0181301816001100046172169
B1302124616079N01311261EA0181001813001100048171171
B1302134616072N01311262EA0180901810001100047173169
B1302144616065N01311263EA0180801809001100045177172
B1302154616058N01311263EA0180701808001100044179169
B1302164616052N01311263EA0180501807001100044178164
B1302174616045N01311264EA0180301805001100045177167
B1302184616038N01311264EA0180201803001100046176167
B1302194616031N01311265EA0180001801001100046176168
B1302204616025N01311265EA0179901800001100044176167
B1302214616018N01311266EA0179801799001100042175165
B1302224616012N01311266EA0179701798001100042175166
B1302234616006N01311267EA0179501796001100044175167
B1302244615999N01311268EA0179301794001100046175167
B1302254615992N01311269EA0179201792001100047175163
B1302264615985N01311269EA0179101791001100046175164
B1302274615978N01311270EA0179101790001100043175165
B1302284615972N01311271EA0179001789001100042175166
B1302294615966N01311272EA0178901789001100043174166
B1302304615959N01311273EA0178701788001100044173163
B1302314615953N01311274EA0178601786001100046173163
B1302324615946N01311275EA0178501785001100046173162
B1302334615939N01311276EA0178601784001100045172159
B1302344615932N01311277EA0178301783001100043172160
B1302354615926N01311278EA0178301783001100042172160
B1302364615920N01311280EA0178101782001100042172163
B1302374615914N01311281EA0178001780001100043171167
B1302384615907N01311282EA0177801779001100044171162
B1302394615900N01311284EA0177601777001100046172167
B1302404615894N01311285EA0177601776001100046172165
B1302414615887N01311287EA0177501775001100045171161
B1302424615880N01311289EA0177401774001100044169161
B1302434615874N01311290EA0177401773001100043168160
B1302444615867N01311292EA0177301772001100043168162
B1302454615861N01311294EA0177201771001100044170160
B1302464615854N01311295EA0177101771001100044171161
B1302474615848N01311297EA0177001770001100045170160
B1302484615841N01311299EA0176901769001100045169164
B1302494615835N01311301EA0176801768001100045169163
B1302504615828N01311302EA0176701767001100045170165
B1302514615821N01311304EA0176701766001100045171163
B1302524615815N01311305EA0176601765001100044170162
B1302534615808N01311307EA0176401764001100043170163
B1302544615802N01311308EA0176301763001100043170163
B1302554615795N01311310EA0176201762001100044170164
B1302564615789N01311312EA0176101761001100045170164
B1302574615782N01311313EA0176001760001100045170164
B1302584615776N01311315EA0175901759001100044170162
B1302594615769N01311316EA0175801758001100043170163
B1303004615763N01311318EA0175601757001100044170163
B1303014615756N01311320EA0175501755001100046169165
B1303024615749N01311322EA0175401754001100046168161
B1303034615743N01311324EA0175301753001100046168160
B1303044615736N01311326EA0175201752001100044167159
B1303054615730N01311328EA0175301751001100043167161
B1303064615723N01311330EA0175201751001100042167160
B1303074615717N01311332EA0175101751001100042167160
B1303084615711N01311334EA0175001750001100042166158
B1303094615705N01311336EA0174901749001100043164158
B1303104615699N01311339EA0174801748001100044163160
B1303114615692N01311342EA0174701747001100043162158
B1303124615686N01311344EA0174601746001100042162157
B1303134615680N01311347EA0174601745001100041162161
B1303144615675N01311350EA0174501745001100041164162
B1303154615669N01311352EA0174301744001100041166164
B1303164615663N01311354EA0174201743001100042167164
B1303174615656N01311356EA0174101741001100042167162
B1303184615650N01311358EA0173901740001100042167163
B1303194615644N01311360EA0173801739001100042168163
B1303204615638N01311362EA0173701738001100043168161
B1303214615632N01311364EA0173501736001100043167160
B1303224615625N01311366EA0173401735001100043166163
B1303234615619N01311368EA0173301733001100043166161
B1303244615613N01311370EA0173101732001100043168163
B1303254615606N01311372EA0173001730001100043169163
B1303264615600N01311373EA0172801729001100044169162
B1303274615593N01311375EA0172701727001100046168169
B1303284615587N01311377EA0172501726001100046167167
B1303294615580N01311379EA0172501725001100044168173
B1303304615574N01311381EA0172501724001100044170176
B1303314615567N01311382EA0172401724001100043172178
B1303324615560N01311384EA0172301723001100044173173
B1303334615554N01311385EA0172101722001100045173175
B1303344615547N01311386EA0172001720001100045172173
B1303354615540N01311387EA0171901719001100045172175
B1303364615534N01311388EA0171701718001100045173173
B1303374615527N01311389EA0171601717001100044173173
B1303384615521N01311390EA0171501716001100043173174
B1303394615514N01311391EA0171401714001100043173175
B1303404615508N01311392EA0171201713001100044173175
B1303414615501N01311393EA0171101712001100044174176
B1303424615494N01311394EA0170901710001100045175176
B1303434615488N01311395EA0170801709001100044174173
B1303444615481N01311396EA0170701708001100043172171
B1303454615475N01311398EA0170601706001100042170174
B1303464615469N01311399EA0170401705001100043171176
B1303474615462N01311400EA0170201704001100044173177
B1303484615456N01311401EA0170101702001100046176175
B1303494615449N01311401EA0169901700001100047177169
B1303504615442N01311402EA0169801698001100046175171
B1303514615435N01311403EA0169601697001100045172167
B1303524615428N01311404EA0169501696001100044171165
B1303534615422N01311406EA0169401695001100043173169
B1303544615416N01311406EA0169201693001100042177169
B1303554615409N01311407EA0169101692001100043178169
B1303564615402N01311407EA0168801690001100044176167
B1303574615396N01311408EA0168601688001100046172163
B1303584615389N01311410EA0168501686001100046168161
B1303594615383N01311412EA0168401684001100044165160
B1304004615376N01311414EA0168301683001100043166162
B1304014615370N01311416EA0168101682001100043167161
B1304024615364N01311418EA0168001681001100043166158
B1304034615357N01311420EA0167901679001100043165156
B1304044615351N01311423EA0167701678001100043163156
B1304054615345N01311426EA0167601677001100041163155
B1304064615340N01311428EA0167501676001100039162151
B1304074615334N01311431EA0167401675001100039160150
B1304084615328N01311434EA0167201673001100040157150
B1304094615323N01311437EA0167001672001100041157154
B1304104615317N01311441EA0167001670001100043158152
B1304114615311N01311444EA0166901668001100042159152
B1304124615305N01311447EA0166801667001100041158153
B1304134615300N01311450EA0166701667001100038158151
B1304144615294N01311453EA0166501666001100038160153
B1304154615289N01311456EA0166301665001100039160154
B1304164615283N01311459EA0166201663001100042158153
B1304174615277N01311463EA0165901661001100043156155
B1304184615271N01311466EA0165701659001100042156154
B1304194615266N01311470EA0165601658001100042157158
B1304204615260N01311474EA0165401656001100044158159
B1304214615253N01311477EA0165201654001100045159157
B1304224615247N01311481EA0165101652001100046160157
B1304234615241N01311484EA0165001650001100044160154
B1304244615234N01311487EA0164901649001100043159155
B1304254615229N01311490EA0164701648001100043158154
B1304264615222N01311494EA0164501647001100044157156
B1304274615216N01311497EA0164401646001100045158155
B1304284615210N01311501EA0164301644001100045159154
B1304294615204N01311504EA0164301643001100045159152
B1304304615197N01311508EA0164101642001100043159156
B1304314615191N01311511EA0164001641001100043161156
B1304324615185N01311514EA0163901640001100045162157
B1304334615179N01311516EA0163701639001100046162156
B1304344615172N01311520EA0163501637001100047161158
B1304354615165N01311523EA0163401635001100046161157
B1304364615159N01311526EA0163301634001100046162159
B1304374615152N01311528EA0163101633001100044163159
B1304384615146N01311531EA0163001632001100044164158
B1304394615140N01311534EA0162801630001100045164158
B1304404615133N01311536EA0162701629001100046164158
B1304414615126N01311539EA0162501627001100047163156
B1304424615120N01311542EA0162401625001100047162157
B1304434615113N01311545EA0162201624001100046161157
B1304444615107N01311548EA0162101622001100046162159
B1304454615100N01311551EA0161901621001100047164160
B1304464615093N01311554EA0161801620001100047164158
B1304474615086N01311556EA0161601618001100048164159
B1304484615079N01311559EA0161401616001100048164160
B1304494615072N01311562EA0161301615001100048163159
B1304504615066N01311565EA0161201613001100047163163
B1304514615059N01311568EA0161201612001100046164160
B1304524615052N01311570EA0161001611001100046165158
B1304534615046N01311573EA0160801610001100047166162
B1304544615039N01311575EA0160701609001100047165163
B1304554615032N01311578EA0160501607001100047163163
B1304564615025N01311581EA0160401606001100047162164
B1304574615018N01311584EA0160301604001100046162163
B1304584615012N01311587EA0160301603001100045164167
B1304594615005N01311589EA0160201603001100044168168
B1305004614999N01311590EA0160201602001100043169164
B1305014614993N01311592EA0160001601001100043169169
B1305024614986N01311594EA0159801600001100043168170
B1305034614980N01311596EA0159601599001100043169170
B1305044614974N01311597EA0159501597001100044171167
B1305054614967N01311598EA0159301596001100045170164
B1305064614960N01311600EA0159201594001100045169150
B1305074614954N01311602EA0159101593001100046166148
B1305084614947N01311605EA0158901591001100046165150
B1305094614940N01311607EA0158901590001100047166156
B1305104614933N01311609EA0158901589001100047167154
B1305114614927N01311611EA0158801589001100046168152
B1305124614920N01311614EA0158701588001100045166150
B1305134614914N01311616EA0158601587001100045163151
B1305144614907N01311619EA0158401586001100045162151
B1305154614901N01311622EA0158301585001100045163156
B1305164614894N01311625EA0158201584001100046164155
B1305174614887N01311627EA0158001583001100045163154
B1305184614881N01311630EA0157901582001100044163154
B1305194614875N01311633EA0157701580001100044162154
B1305204614869N01311636EA0157501578001100043162149
B1305214614862N01311638EA0157301576001100044163148
B1305224614856N01311641EA0157101574001100045162147
B1305234614850N01311644EA0156901572001100045161147
B1305244614843N01311647EA0156801570001100046161148
B1305254614837N01311650EA0156701569001100045160148
B1305264614830N01311653EA0156501567001100043161150
B1305274614824N01311656EA0156501566001100041164153
B1305284614818N01311658EA0156301566001100041167149
B1305294614812N01311660EA0156101564001100042167145
B1305304614806N01311662EA0155801562001100043163148
E130530Waypoint PALUZ LANDING                            reached
B1305314614800N01311665EA0155501560001100044160151
B1305324614794N01311668EA0155401557001100043159149
B1305334614788N01311671EA0155301555001100043159153
B1305344614782N01311675EA0155201554001100041160157
B1305354614776N01311677EA0154901552001100041162175
B1305364614770N01311680EA0154901550001100040165182
B1305374614764N01311681EA0154701549001100039175209
B1305384614758N01311680EA0154301547001100044195210
B1305394614752N01311676EA0154101546001100052205224
B1305404614744N01311670EA0153801544001100058217229
B1305414614738N01311661EA0153601542001100059221240
B1305424614732N01311652EA0153201540001100057232245
B1305434614727N01311642EA0153201539001100056236253
B1305444614723N01311632EA0153201538001100055242262
B1305454614719N01311621EA0153201537001100055242265
B1305464614715N01311610EA0153101536001100055242273
B1305474614712N01311600EA0153001534001100055243276
B1305484614708N01311589EA0152801533001100055247282
B1305494614705N01311578EA0152601532001100054249287
B1305504614702N01311566EA0152501530001100054250286
B1305514614700N01311555EA0152401529001100055251295
B1305524614697N01311544EA0152101527001100055255302
B1305534614696N01311532EA0151901526001100054260304
B1305544614695N01311520EA0151701524001100054263302
B1305554614694N01311508EA0151701522001100056264300
B1305564614693N01311496EA0151401519001100055262301
B1305574614692N01311484EA0151301517001100058261301
B1305584614691N01311471EA0151101515001100057262302
B1305594614690N01311459EA0151001514001100055263302
B1306004614689N01311447EA0150901512001100054263299
B1306014614688N01311435EA0150701511001100054262302
B1306024614687N01311424EA0150501509001100054262315
B1306034614686N01311412EA0150301507001100055264349
B1306044614686N01311400EA0150101505001100056266000
B1306054614685N01311388EA0150001503001100056266359
B1306064614685N01311376EA0149801501001100054264001
B1306074614684N01311364EA0149601500001100055263356
B1306084614683N01311353EA0149501499001100052263349
B1306094614682N01311342EA0149301497001100053265351
B1306104614682N01311330EA0149101495001100054266349
B1306114614681N01311318EA0148901493001100055267352
B1306124614681N01311307EA0148701491001100055266357
B1306134614681N01311295EA0148601489001100055267359
B1306144614681N01311283EA0148501488001100055269001
B1306154614681N01311271EA0148501487001100055269002
B1306164614680N01311259EA0148401486001100055268006
B1306174614680N01311247EA0148301485001100054267343
B1306184614680N01311236EA0148201484001100054267328
B1306194614680N01311224EA0148201483001100053268344
B1306204614680N01311212EA0148101482001100053269348
B1306214614680N01311201EA0148001481001100053269351
B1306224614679N01311189EA0147901480001100053268349
B1306234614679N01311177EA0147901480001100054269350
B1306244614679N01311166EA0147801479001100053270347
B1306254614680N01311154EA0147801479001100053271345
B1306264614680N01311143EA0147701478001100053271342
B1306274614680N01311131EA0147601477001100054270009
B1306284614680N01311119EA0147601476001100054269023
B1306294614680N01311107EA0147601476001100052269012
B1306304614680N01311096EA0147501476001100050271013
B1306314614681N01311085EA0147501476001100049272012
B1306324614681N01311074EA0147301475001100050272011
B1306334614681N01311063EA0147101474001100049270011
B1306344614681N01311052EA0147001473001100054269017
B1306354614681N01311040EA0146801471001100055270017
B1306364614682N01311028EA0146801469001100056273023
B1306374614683N01311016EA0146601468001100055275015
B1306384614683N01311004EA0146601467001100053273013
B1306394614684N01310993EA0146501466001100055271014
B1306404614684N01310982EA0146401466001100051269352
B1306414614684N01310971EA0146301465001100052271352
B1306424614684N01310959EA0146101464001100051273337
B1306434614685N01310948EA0146001462001100051276335
B1306444614686N01310936EA0145801460001100055277333
B1306454614687N01310924EA0145801459001100054280327
B1306464614689N01310913EA0145801458001100051284331
B1306474614691N01310903EA0145701458001100047291332
B1306484614694N01310894EA0145601457001100044296331
B1306494614697N01310886EA0145501456001100044297338
B1306504614700N01310877EA0145301455001100046297339
B1306514614704N01310868EA0145201453001100049299346
B1306524614708N01310859EA0145101452001100049301050
B1306534614712N01310851EA0145101451001100046301072
B1306544614715N01310842EA0145201450001100043300081
B1306554614718N01310834EA0145201451001100040298071
B1306564614721N01310827EA0145101451001100038298065
B1306574614724N01310820EA0144901451001100040300060
B1306584614728N01310812EA0144801450001100044304050
B1306594614732N01310804EA0144701448001100047307048
B1307004614736N01310796EA0144801446001100045307048
B1307014614740N01310789EA0144701446001100042305049
B1307024614743N01310782EA0144701446001100040304052
B1307034614747N01310775EA0144601446001100041304055
B1307044614751N01310767EA0144401446001100043306055
B1307054614755N01310760EA0144301444001100045308054
B1307064614759N01310752EA0144201443001100046309053
B1307074614763N01310745EA0144101441001100045309052
B1307084614768N01310737EA0144201441001100045311054
B1307094614772N01310731EA0144101440001100043312054
B1307104614777N01310724EA0143901440001100040314056
B1307114614781N01310718EA0143901439001100039315057
B1307124614785N01310712EA0143601438001100039313058
B1307134614789N01310706EA0143401436001100039310058
B1307144614793N01310699EA0143201434001100039308058
B1307154614797N01310693EA0143001432001100040308059
B1307164614801N01310686EA0142901430001100041310058
B1307174614805N01310679EA0142801428001100041312056
B1307184614809N01310673EA0142801428001100039315056
B1307194614813N01310668EA0142801427001100036318057
B1307204614817N01310663EA0142701427001100035319059
B1307214614821N01310658EA0142501426001100036320060
B1307224614825N01310653EA0142201425001100038320059
B1307234614830N01310648EA0141901422001100042321057
B1307244614835N01310642EA0141801420001100044322055
B1307254614841N01310636EA0141601418001100044323053
B1307264614846N01310631EA0141601416001100043322053
B1307274614851N01310625EA0141401415001100041319054
B1307284614855N01310619EA0141401414001100039317057
B1307294614860N01310614EA0141101413001100039319059
B1307304614864N01310608EA0140801411001100041323058
B1307314614870N01310603EA0140401408001100043325057
B1307324614875N01310598EA0139901405001100045323055
B1307334614880N01310592EA0139601402001100047320054
B1307344614886N01310585EA0139301398001100047318052
B1307354614891N01310578EA0139101395001100047320051
B1307364614897N01310572EA0138801392001100046324051
B1307374614902N01310567EA0138701390001100045325052
B1307384614908N01310561EA0138401387001100044321053
B1307394614913N01310555EA0138201385001100044316054
B1307404614917N01310548EA0138101383001100044315055
B1307414614922N01310542EA0137801381001100043317055
B1307424614927N01310536EA0137601379001100043319055
B1307434614932N01310530EA0137401377001100043318055
B1307444614937N01310523EA0137201374001100044314055
B1307454614941N01310516EA0137001372001100045312054
B1307464614946N01310509EA0136801370001100046312054
B1307474614951N01310502EA0136601368001100045314053
B1307484614956N01310495EA0136401366001100044314053
B1307494614960N01310488EA0136301364001100044311054
B1307504614964N01310481EA0136101363001100044307056
B1307514614968N01310473EA0135901361001100044304057
B1307524614972N01310465EA0135701359001100045302057
B1307534614975N01310456EA0135501357001100046300057
B1307544614979N01310448EA0135401355001100047298056
B1307554614982N01310439EA0135201353001100046296057
B1307564614985N01310430EA0135101352001100045293060
B1307574614987N01310421EA0135001351001100044292064
B1307584614990N01310412EA0134801349001100044292066
B1307594614992N01310403EA0134601348001100045294065
B1308004614995N01310394EA0134501346001100047295062
B1308014614998N01310385EA0134401344001100046292060
B1308024615001N01310376EA0134301343001100043290063
B1308034615003N01310368EA0134301342001100041290070
B1308044615005N01310360EA0134101342001100040293072
B1308054615008N01310352EA0133901340001100039300070
B1308064615011N01310345EA0133601338001100039310066
B1308074615015N01310339EA0133301336001100040317062
B1308084615020N01310334EA0133201333001100040327059
B1308094615025N01310330EA0133201331001100038338058
B1308104615030N01310328EA0133101330001100035343060
B1308114615035N01310326EA0133001329001100033343062
B1308124615040N01310324EA0132901329001100032344064
B1308134615045N01310323EA0132701328001100033348065
B1308144615050N01310322EA0132601327001100035353064
B1308154615056N01310322EA0132501325001100036355064
B1308164615061N01310321EA0132401324001100036352063
B1308174615066N01310320EA0132301323001100035347063
B1308184615072N01310319EA0132101322001100035345063
B1308194615077N01310317EA0131901320001100036347062
B1308204615083N01310315EA0131801318001100038352062
B1308214615088N01310315EA0131701316001100038355062
B1308224615094N01310314EA0131501315001100038354062
B1308234615099N01310313EA0131401314001100036352062
B1308244615105N01310312EA0131401313001100035353063
B1308254615110N01310312EA0131201312001100036354064
B1308264615116N01310311EA0131101310001100039355063
B1308274615121N01310310EA0131001309001100039357062
B1308284615127N01310310EA0131001308001100039002062
B1308294615133N01310311EA0131001308001100039005063
B1308304615139N01310312EA0131001307001100039005064
B1308314615145N01310313EA0130901307001100038003064
B1308324615150N01310313EA0131001307001100036002064
B1308334615156N01310314EA0130901307001100035006066
B1308344615161N01310315EA0130701306001100035011067
B1308354615166N01310317EA0130401305001100035014069
B1308364615171N01310319EA0130101302001100037011069
B1308374615176N01310320EA0129901299001100039009067
B1308384615182N01310322EA0129701297001100038010066
B1308394615187N01310323EA0129601295001100035011066
B1308404615192N01310325EA0129401294001100032011068
B1308414615197N01310326EA0129101292001100031010071
B1308424615201N01310328EA0128701290001100033010072
B1308434615206N01310329EA0128401287001100036010070
B1308444615212N01310331EA0128001283001100038008067
B1308454615217N01310332EA0127801279001100038005066
B1308464615223N01310332EA0127701276001100038003064
B1308474615229N01310333EA0127501274001100036004064
B1308484615234N01310334EA0127401273001100033006066
B1308494615238N01310335EA0127301272001100030006069
B1308504615243N01310335EA0127001270001100029005073
B1308514615247N01310336EA0126801268001100030003074
B1308524615251N01310336EA0126601266001100032002072
B1308534615256N01310337EA0126301263001100033003070
B1308544615261N01310337EA0126001261001100033005069
B1308554615266N01310338EA0125701258001100034004069
B1308564615271N01310338EA0125401255001100034001068
B1308574615276N01310338EA0125201252001100034001067
B1308584615281N01310339EA0124801249001100034002067
B1308594615286N01310339EA0124501246001100035004068
B1309004615292N01310340EA0124301243001100038006067
B1309014615297N01310341EA0124301241001100037007065
B1309024615303N01310342EA0124301239001100032008063
B1309034615307N01310343EA0124101238001100025007065
B1309044615310N01310344EA0123801238001100020005070
B1309054615313N01310344EA0123301236001100021005075
B1309064615317N01310344EA0122701233001100027006075
B1309074615321N01310345EA0122501229001100032008071
B1309084615326N01310347EA0122301224001100033012068
B1309094615331N01310348EA0122101220001100031015068
B1309104615335N01310350EA0121701217001100029016069
B1309114615339N01310352EA0121401215001100027015070
B1309124615343N01310353EA0121101212001100028014066
B1309134615347N01310355EA0120701208001100030015060
B1309144615352N01310357EA0120401205001100032016057
B1309154615356N01310358EA0120001201001100031013061
B1309164615360N01310360EA0119901198001100028009066
B1309174615364N01310361EA0119601196001100025008057
B1309184615368N01310362EA0119101193001100024012048
B1309194615372N01310363EA0118701190001100026013044
B1309204615376N01310364EA0118101185001100029009047
B1309214615380N01310365EA0117701180001100032005048
B1309224615385N01310366EA0117501176001100033006049
B1309234615390N01310367EA0117201172001100031011048
B1309244615394N01310369EA0117001169001100028014052
B1309254615398N01310370EA0116901167001100027011055
B1309264615402N01310371EA0116601165001100027005059
B1309274615406N01310372EA0116301163001100029005059
B1309284615411N01310372EA0116001160001100031009058
B1309294615416N01310374EA0115601157001100032010059
B1309304615420N01310375EA0115401154001100032010060
B1309314615425N01310377EA0115201151001100032013061
B1309324615430N01310379EA0115101149001100032017063
B1309334615434N01310381EA0114901147001100032018064
B1309344615438N01310383EA0114701145001100031016064
B1309354615443N01310385EA0114401144001100029015064
B1309364615447N01310386EA0114101141001100028013065
B1309374615451N01310388EA0113701139001100029013066
B1309384615455N01310389EA0113401135001100031015065
B1309394615460N01310392EA0113101132001100033019064
B1309404615464N01310394EA0112901129001100033020064
B1309414615468N01310397EA0112601126001100032021065
B1309424615473N01310399EA0112501123001100031020066
B1309434615477N01310401EA0112401121001100031019066
B1309444615481N01310404EA0112201119001100030020065
B1309454615485N01310406EA0111901117001100029021067
B1309464615489N01310408EA0111701115001100030021068
B1309474615493N01310411EA0111501113001100031021068
B1309484615498N01310413EA0111101111001100033021066
B1309494615502N01310416EA0111001108001100031021066
B1309504615507N01310418EA0110801106001100029020067
B1309514615511N01310420EA0110801105001100028020068
B1309524615514N01310422EA0110501104001100027023070
B1309534615518N01310425EA0110301102001100028022071
B1309544615522N01310427EA0110001100001100030020070
B1309554615526N01310429EA0109701097001100033019068
B1309564615531N01310432EA0109501094001100033019066
B1309574615535N01310434EA0109301091001100031018066
B1309584615539N01310436EA0109001089001100029020067
B1309594615543N01310439EA0108501087001100029023070
B1310004615548N01310441EA0108301084001100032024070
B1310014615552N01310445EA0107901080001100038024069
B1310024615558N01310448EA0107501076001100042021066
B1310034615564N01310451EA0107401072001100041020061
B1310044615569N01310454EA0107201069001100038020061
B1310054615574N01310457EA0107001067001100035020055
B1310064615579N01310460EA0106701065001100034018053
B1310074615584N01310462EA0106301063001100035016048
B1310084615589N01310464EA0106001060001100036017044
B1310094615594N01310467EA0105601056001100038021047
B1310104615599N01310470EA0105301053001100040025047
B1310114615605N01310474EA0105201049001100041024046
B1310124615610N01310477EA0104901047001100039021044
B1310134615616N01310480EA0104701044001100036020042
B1310144615621N01310483EA0104501042001100036023037
B1310154615626N01310486EA0104201040001100037026030
B1310164615631N01310490EA0103901037001100039025033
B1310174615636N01310494EA0103601034001100041021031
B1310184615642N01310496EA0103401031001100041016028
B1310194615648N01310499EA0103101028001100041015021
B1310204615654N01310501EA0103001026001100041018017
B1310214615660N01310504EA0102801024001100040022016
B1310224615665N01310508EA0102701023001100040023019
B1310234615671N01310511EA0102601021001100039021026
B1310244615676N01310514EA0102501020001100039020027
B1310254615682N01310517EA0102401018001100039023021
B1310264615687N01310521EA0102101017001100040026013
B1310274615693N01310525EA0102001015001100042025015
B1310284615698N01310529EA0101801013001100042022021
B1310294615704N01310532EA0101701011001100041022021
B1310304615710N01310536EA0101701010001100039025023
B1310314615715N01310539EA0101701010001100037028028
B1310324615720N01310543EA0101601010001100036026032
B1310334615724N01310546EA0101501009001100036023027
B1310344615729N01310549EA0101501009001100036023036
B1310354615734N01310553EA0101301008001100036029042
B1310364615739N01310557EA0101501008001100035034044
B1310374615743N01310561EA0101401008001100031042053
B1310384615746N01310566EA0101301007001100029044056
B1310394615749N01310570EA0101001007001100030042045
B1310404615753N01310575EA0100701005001100034038033
B1310414615757N01310580EA0100401002001100037035032
B1310424615762N01310584EA0100200998001100039029034
B1310434615767N01310588EA0100200996001100038026021
B1310444615772N01310592EA0100200995001100036028017
B1310454615776N01310596EA0100100995001100034029009
B1310464615780N01310599EA0100000994001100034026008
B1310474615785N01310602EA0099900994001100035020018
B1310484615790N01310604EA0099800993001100035019019
B1310494615795N01310607EA0099800992001100034023007
B1310504615800N01310610EA0099900992001100033027019
B1310514615804N01310614EA0099800991001100032027017
B1310524615808N01310617EA0099600991001100033027009
B1310534615812N01310620EA0099600990001100034028011
B1310544615817N01310624EA0099500989001100033027018
B1310554615821N01310627EA0099500988001100032025028
B1310564615826N01310630EA0099400988001100032025020
B1310574615830N01310633EA0099300987001100033028020
B1310584615834N01310636EA0099200986001100034030032
B1310594615838N01310640EA0099100985001100033032040
B1311004615843N01310644EA0098900984001100033031036
B1311014615847N01310648EA0098700982001100034026043
B1311024615852N01310650EA0098300980001100036020033
B1311034615857N01310653EA0098000977001100038014026
B1311044615863N01310655EA0097800974001100039011022
B1311054615868N01310656EA0097700972001100037011015
B1311064615874N01310658EA0097600971001100035012015
B1311074615879N01310660EA0097400970001100034011355
B1311084615884N01310661EA0097300968001100035009348
B1311094615889N01310662EA0097100967001100035004345
B1311104615894N01310662EA0096900965001100036003338
B1311114615900N01310663EA0096900964001100035004339
B1311124615905N01310663EA0096800962001100035006338
B1311134615910N01310664EA0096700961001100034007346
B1311144615915N01310665EA0096700961001100032001345
B1311154615920N01310664EA0096600960001100031352342
B1311164615924N01310663EA0096400958001100028345341
B1311174615928N01310661EA0096300957001100025345339
B1311184615932N01310659EA0096000956001100025343341
B1311194615935N01310657EA0095700954001100028338342
B1311204615940N01310654EA0095400951001100029338341
B1311214615944N01310652EA0095300948001100031339341
B1311224615948N01310649EA0095100946001100031336343
B1311234615952N01310646EA0095000945001100030328341
B1311244615956N01310642EA0094800943001100030322337
B1311254615959N01310638EA0094700941001100031322334
B1311264615963N01310634EA0094600939001100032327335
B1311274615967N01310630EA0094800939001100032332338
B1311284615972N01310627EA0094900939001100031333342
B1311294615976N01310624EA0095000940001100030332344
B1311304615980N01310621EA0095100941001100030329343
B1311314615984N01310618EA0095100942001100029329341
B1311324615987N01310614EA0095200943001100027329341
B1311334615991N01310611EA0095100943001100026327343
B1311344615994N01310608EA0094900943001100027322342
B1311354615997N01310604EA0094800942001100030322338
B1311364616001N01310600EA0094700941001100033326337
B1311374616006N01310596EA0094500940001100033331339
B1311384616010N01310593EA0094400938001100033331343
B1311394616014N01310590EA0094500937001100025330342
B1311404616018N01310584EA0094700936001100036317344
B1311414616022N01310579EA0094800937001100032316331
B1311424616026N01310574EA0095200939001100028320332
B1311434616029N01310571EA0095300942001100027333337
B1311444616033N01310569EA0095400944001100029343346
B1311454616038N01310567EA0095500946001100032350352
B1311464616042N01310567EA0095800947001100035000357
B1311474616048N01310568EA0095800948001100038013003
B1311484616054N01310571EA0096000950001100041023016
B1311494616059N01310575EA0096100951001100041026016
B1311504616064N01310579EA0096100952001100041026023
B1311514616070N01310584EA0096300953001100042031033
B1311524616075N01310589EA0096600955001100044037037
B1311534616080N01310595EA0096800957001100043039057
B1311544616085N01310601EA0097000959001100041037074
B1311554616090N01310606EA0097100961001100042035070
B1311564616094N01310610EA0097100962001100042035075
B1311574616098N01310617EA0096900963001100047052080
B1311584616101N01310627EA0096800962001100050076096
B1311594616101N01310638EA0096700961001100052099110
B1312004616099N01310649EA0096500960001100048118130
B1312014616095N01310657EA0096500959001100037132142
B1312024616091N01310661EA0096600958001100028159152
B1312034616087N01310663EA0096600959001100027171167
B1312044616083N01310665EA0096700959001100025174173
B1312054616079N01310666EA0096800959001100021172176
B1312064616076N01310667EA0096900960001100019172176
B1312074616073N01310668EA0096800960001100021185178
B1312084616070N01310667EA0096900960001100023202186
B1312094616067N01310665EA0097000960001100022216197
B1312104616064N01310662EA0097100961001100021224206
B1312114616062N01310658EA0097000962001100021228212
B1312124616060N01310655EA0097100962001100022228216
B1312134616057N01310651EA0097100962001100023227218
B1312144616055N01310647EA0097300962001100023230219
B1312154616053N01310644EA0097400964001100021234222
B1312164616051N01310640EA0097500965001100018236225
B1312174616050N01310637EA0097400965001100016241227
B1312184616050N01310634EA0097400966001100015248230
B1312194616049N01310631EA0097300966001100017248234
B1312204616048N01310627EA0097100965001100019249236
B1312214616047N01310623EA0096700963001100023254238
B1312224616046N01310618EA0096500960001100025265243
B1312234616046N01310612EA0096300958001100025278251
B1312244616048N01310607EA0096100956001100024290260
B1312254616049N01310602EA0095800954001100025296269
B1312264616051N01310597EA0095600952001100027293274
B1312274616052N01310591EA0095500950001100030285274
B1312284616053N01310584EA0095400947001100031283271
B1312294616055N01310578EA0095300946001100030291270
B1312304616057N01310572EA0095300946001100031301276
B1312314616060N01310566EA0095300945001100030307284
B1312324616062N01310561EA0095200945001100029306288
B1312334616065N01310556EA0095000944001100029303290
B1312344616068N01310551EA0094800943001100032305288
B1312354616071N01310544EA0094600941001100035308290
B1312364616074N01310538EA0094500939001100037310293
B1312374616078N01310532EA0094500938001100036311295
B1312384616082N01310526EA0094500937001100034311300
B1312394616085N01310521EA0094400937001100033310299
B1312404616088N01310515EA0094400936001100034309298
B1312414616092N01310509EA0094300936001100034308296
B1312424616095N01310503EA0094200935001100035307295
B1312434616099N01310497EA0094100933001100038309294
B1312444616103N01310491EA0094200933001100040312296
B1312454616107N01310484EA0094400932001100040315299
B1312464616112N01310479EA0094500933001100038318304
B1312474616116N01310474EA0094700934001100035322298
B1312484616121N01310469EA0094900936001100034326301
B1312494616125N01310465EA0095000938001100036326302
B1312504616130N01310460EA0095000939001100041325306
B1312514616136N01310455EA0095100939001100045327312
B1312524616141N01310451EA0095300940001100045332309
B1312534616148N01310447EA0095500942001100042338310
B1312544616154N01310444EA0095500944001100040343341
B1312554616160N01310442EA0095700945001100041349349
B1312564616166N01310441EA0095700946001100046000009
B1312574616173N01310444EA0095600946001100052020022
B1312584616180N01310449EA0095600945001100053039035
B1312594616185N01310458EA0095500945001100048059056
B1313004616188N01310467EA0095500945001100043078078
B1313014616188N01310475EA0095600945001100036097102
B1313024616187N01310483EA0095600945001100031111127
B1313034616184N01310489EA0095600945001100031124139
B1313044616182N01310494EA0095500946001100029138152
B1313054616178N01310497EA0095800946001100027153160
B1313064616175N01310500EA0095900947001100026164170
B1313074616171N01310501EA0095900948001100024165160
B1313084616167N01310503EA0096100950001100021162168
B1313094616164N01310504EA0096300951001100021161176
B1313104616161N01310506EA0096400952001100024162177
B1313114616158N01310508EA0096500953001100023164174
B1313124616155N01310508EA0096700955001100017175198
B1313134616153N01310507EA0096800957001100014228213
B1313144616152N01310504EA0096800959001100020277246
B1313154616153N01310497EA0096700960001100036284262
B1313164616156N01310490EA0096800961001100038305297
B1313174616160N01310483EA0096900961001100046326323
B1313184616167N01310479EA0097000962001100050349343
B1313194616175N01310480EA0097000962001100052010003
B1313204616182N01310483EA0097000963001100050025020
B1313214616189N01310488EA0097300964001100049038038
B1313224616194N01310495EA0097600966001100047045056
B1313234616198N01310502EA0097800968001100039056073
B1313244616200N01310510EA0097900971001100036071085
B1313254616201N01310516EA0097700972001100031084097
B1313264616201N01310523EA0097800972001100032096117
B1313274616200N01310531EA0097800972001100035103137
B1313284616199N01310538EA0097800972001100033111136
B1313294616197N01310544EA0097900972001100029117149
B1313304616195N01310549EA0098000973001100023131159
B1313314616192N01310552EA0098000973001100021153179
B1313324616189N01310553EA0098000973001100022172187
B1313334616186N01310553EA0098000973001100023185184
B1313344616182N01310552EA0098100972001100021196196
B1313354616179N01310550EA0098200973001100019203194
B1313364616177N01310548EA0098200974001100019207189
B1313374616174N01310546EA0098300974001100020209198
B1313384616171N01310544EA0098300974001100021211204
B1313394616169N01310541EA0098300974001100021216204
B1313404616166N01310538EA0098400975001100021223206
B1313414616164N01310534EA0098400975001100021231212
B1313424616162N01310531EA0098400976001100022241224
B1313434616161N01310526EA0098400976001100024257242
B1313444616161N01310520EA0098400976001100030274267
B1313454616162N01310513EA0098300976001100034289278
B1313464616164N01310506EA0098300975001100037305294
B1313474616169N01310500EA0098300975001100040320295
B1313484616174N01310494EA0098400975001100043328292
B1313494616180N01310489EA0098500975001100045326289
B1313504616185N01310483EA0098600976001100043322284
B1313514616190N01310477EA0098700977001100040322292
B1313524616195N01310472EA0098800978001100039324289
B1313534616200N01310467EA0098900979001100039326292
B1313544616205N01310462EA0099000980001100040323286
B1313554616210N01310456EA0099200981001100042318295
B1313564616215N01310450EA0099400982001100040318286
B1313574616219N01310445EA0099500984001100036325277
B1313584616224N01310441EA0099600986001100032327270
B1313594616228N01310436EA0099500988001100043314265
B1314004616231N01310431EA0099400989001100033306267
B1314014616234N01310425EA0099400988001100035301260
B1314024616236N01310418EA0099500987001100033299255
B1314034616238N01310412EA0099500987001100029295252
B1314044616240N01310407EA0099600988001100027289250
B1314054616241N01310401EA0099700989001100028284250
B1314064616242N01310395EA0099700989001100030283250
B1314074616243N01310389EA0099800989001100031281242
B1314084616244N01310382EA0099900990001100029278230
B1314094616244N01310376EA0100200991001100027276229
B1314104616245N01310371EA0100400993001100023274227
B1314114616245N01310366EA0100600995001100020267231
B1314124616244N01310362EA0100800997001100020263232
B1314134616244N01310358EA0100900999001100021272239
B1314144616245N01310353EA0101201001001100024284245
B1314154616246N01310348EA0101601003001100024298241
B1314164616248N01310344EA0101901006001100021308240
B1314174616250N01310341EA0102101009001100019308249
B1314184616251N01310338EA0102201012001100019300246
B1314194616253N01310334EA0102401014001100023292250
B1314204616254N01310329EA0102701016001100027290250
B1314214616254N01310325EA0103201018001100009242249
B1314224616254N01310320EA0103401021001100020269221
B1314234616254N01310316EA0103801025001100017258236
B1314244616254N01310312EA0104301029001100015254240
B1314254616253N01310309EA0104601033001100013253229
B1314264616252N01310306EA0104801037001100015257244
B1314274616252N01310302EA0104901039001100021256247
B1314284616251N01310298EA0105101041001100025254238
B1314294616250N01310292EA0105401043001100025259251
B1314304616250N01310287EA0105901046001100023266240
B1314314616250N01310282EA0106301050001100019269233
B1314324616249N01310279EA0106601054001100015267225
B1314334616249N01310276EA0107001058001100015264245
B1314344616249N01310272EA0107101062001100015267247
B1314354616250N01310269EA0107201064001100016288261
B1314364616251N01310266EA0107201066001100019302258
B1314374616252N01310262EA0107201066001100020302261
B1314384616254N01310258EA0107201067001100021301262
B1314394616256N01310254EA0107201067001100022298261
B1314404616257N01310250EA0107001066001100023297255
B1314414616259N01310245EA0107201066001100022294232
B1314424616260N01310241EA0107201066001100018273232
B1314434616259N01310237EA0107101067001100019231212
B1314444616256N01310235EA0107101068001100025201195
B1314454616252N01310233EA0107401068001100028190173
B1314464616248N01310233EA0107601069001100026178166
B1314474616245N01310234EA0107701071001100026156153
B1314484616241N01310238EA0107601072001100033137151
B1314494616237N01310245EA0107301072001100042128144
B1314504616233N01310253EA0107401071001100048126130
B1314514616229N01310262EA0107901071001100048121126
B1314524616226N01310271EA0108801074001100042116125
B1314534616224N01310279EA0109201078001100037110115
B1314544616222N01310287EA0109401083001100034111121
B1314554616220N01310294EA0109501086001100034118148
B1314564616217N01310300EA0109601088001100037132151
B1314574616212N01310304EA0109701089001100039159172
B1314584616206N01310306EA0109601089001100040181195
B1314594616201N01310304EA0109801089001100038199208
B1315004616196N01310301EA0110001090001100032221233
B1315014616193N01310296EA0110301091001100029244251
B1315024616192N01310290EA0110601092001100024260252
B1315034616192N01310285EA0111001095001100023263260
B1315044616192N01310280EA0111401097001100017283273
B1315054616192N01310278EA0111601101001100016298272
B1315064616194N01310275EA0111801106001100019317280
B1315074616197N01310272EA0112001108001100027333295
B1315084616201N01310270EA0112301110001100036346315
B1315094616207N01310270EA0112401111001100038013338
B1315104616212N01310273EA0112901113001100041031009
B1315114616217N01310278EA0113501115001100040049034
B1315124616220N01310286EA0113701118001100043058050
B1315134616223N01310294EA0113901121001100047068065
B1315144616225N01310304EA0114001122001100048073076
B1315154616227N01310315EA0114101124001100050087098
B1315164616226N01310325EA0114501127001100049100114
B1315174616224N01310335EA0114701130001100044113127
B1315184616221N01310342EA0114901133001100040128151
B1315194616217N01310348EA0115001136001100038142160
B1315204616212N01310352EA0115101137001100038157184
B1315214616206N01310354EA0115201138001100039170202
B1315224616200N01310355EA0115401138001100038180192
B1315234616195N01310354EA0115401140001100035188210
B1315244616190N01310352EA0115701142001100028197224
B1315254616187N01310350EA0116101145001100022215243
B1315264616184N01310346EA0116101147001100022235244
B1315274616183N01310342EA0116301149001100024252251
B1315284616182N01310337EA0116501150001100025259259
B1315294616181N01310331EA0116701151001100024265264
B1315304616181N01310326EA0116801154001100021274263
B1315314616182N01310322EA0117101157001100020284275
B1315324616183N01310318EA0117401160001100018299290
B1315334616185N01310315EA0117901163001100017315284
B1315344616187N01310312EA0118101167001100018323286
B1315354616189N01310309EA0118501170001100020317286
B1315364616191N01310306EA0118701172001100022306274
B1315374616193N01310302EA0118901176001100022302272
B1315384616195N01310298EA0119401180001100020299265
B1315394616196N01310294EA0119901184001100017294266
B1315404616197N01310291EA0120101188001100016293272
B1315414616199N01310287EA0120501192001100016305287
B1315424616201N01310284EA0120601194001100019323279
B1315434616204N01310282EA0120701196001100025326285
B1315444616207N01310278EA0120801198001100027316284
B1315454616210N01310273EA0121201200001100029311291
B1315464616213N01310269EA0121501203001100027320283
B1315474616217N01310265EA0121901207001100025331290
B1315484616220N01310263EA0122201210001100023335292
B1315494616223N01310261EA0122201213001100023333290
B1315504616226N01310258EA0122301214001100025332292
B1315514616230N01310256EA0122301215001100025335316
B1315524616233N01310254EA0122101215001100026345329
B1315534616238N01310254EA0122001215001100035012355
B1315544616244N01310257EA0122001214001100046027011
B1315554616249N01310263EA0121901213001100048040028
B1315564616255N01310270EA0121901212001100047048048
B1315574616258N01310278EA0121901212001100046058061
B1315584616261N01310287EA0121901212001100045070068
B1315594616263N01310297EA0122001211001100049079075
B1316004616264N01310309EA0122101212001100048086094
B1316014616263N01310320EA0122201212001100050094096
B1316024616262N01310330EA0122601214001100048103107
B1316034616260N01310340EA0123001217001100046110115
B1316044616257N01310349EA0123301220001100046115120
B1316054616254N01310358EA0123701224001100045117125
B1316064616251N01310367EA0123901228001100042115129
B1316074616248N01310375EA0124401231001100042117134
B1316084616245N01310383EA0124801235001100040123152
B1316094616242N01310390EA0125301240001100039129147
B1316104616238N01310396EA0125601244001100040135129
B1316114616233N01310402EA0126001249001100043137134
B1316124616228N01310408EA0126401252001100045133125
B1316134616223N01310416EA0126901256001100044132163
B1316144616219N01310422EA0127201260001100043138170
B1316154616214N01310427EA0127601265001100039153197
B1316164616208N01310429EA0127901268001100034183206
B1316174616204N01310427EA0128201271001100027205231
B1316184616201N01310425EA0128501274001100016224248
B1316194616200N01310422EA0128901278001100014240262
B1316204616200N01310419EA0129301281001100012311282
B1316214616203N01310416EA0129601285001100017334297
B1316224616205N01310414EA0129901288001100023346321
B1316234616209N01310414EA0130101291001100028000329
B1316244616214N01310415EA0130401295001100038024001
B1316254616219N01310420EA0130701298001100047042024
B1316264616224N01310428EA0131001301001100050060048
B1316274616227N01310438EA0131401303001100050075069
B1316284616228N01310449EA0131801307001100049084079
B1316294616229N01310459EA0132201311001100047090096
B1316304616228N01310469EA0132701316001100042099111
B1316314616227N01310478EA0133001321001100040108135
B1316324616224N01310485EA0133301324001100043129144
B1316334616220N01310491EA0133501328001100040143171
B1316344616214N01310495EA0133801328001100042161187
B1316354616209N01310496EA0134101330001100035183215
B1316364616204N01310495EA0134501332001100029190213
B1316374616200N01310494EA0134801335001100023191233
B1316384616197N01310493EA0135101338001100017199232
B1316394616195N01310491EA0135501342001100014220257
B1316404616194N01310489EA0135801345001100014255271
B1316414616194N01310486EA0135901346001100018293289
B1316424616196N01310483EA0136201348001100024336312
